{
  "contractName": "MalcolmERC721",
  "abi": [
    {
      "inputs": [],
      "stateMutability": "nonpayable",
      "type": "constructor"
    },
    {
      "anonymous": false,
      "inputs": [
        {
          "indexed": true,
          "internalType": "address",
          "name": "owner",
          "type": "address"
        },
        {
          "indexed": true,
          "internalType": "address",
          "name": "approved",
          "type": "address"
        },
        {
          "indexed": true,
          "internalType": "uint256",
          "name": "tokenId",
          "type": "uint256"
        }
      ],
      "name": "Approval",
      "type": "event"
    },
    {
      "anonymous": false,
      "inputs": [
        {
          "indexed": true,
          "internalType": "address",
          "name": "owner",
          "type": "address"
        },
        {
          "indexed": true,
          "internalType": "address",
          "name": "operator",
          "type": "address"
        },
        {
          "indexed": false,
          "internalType": "bool",
          "name": "approved",
          "type": "bool"
        }
      ],
      "name": "ApprovalForAll",
      "type": "event"
    },
    {
      "anonymous": false,
      "inputs": [
        {
          "indexed": false,
          "internalType": "uint256",
          "name": "_tokenId",
          "type": "uint256"
        },
        {
          "indexed": false,
          "internalType": "uint256",
          "name": "_status",
          "type": "uint256"
        },
        {
          "indexed": false,
          "internalType": "uint256",
          "name": "_price",
          "type": "uint256"
        }
      ],
      "name": "LogArtResell",
      "type": "event"
    },
    {
      "anonymous": false,
      "inputs": [
        {
          "indexed": false,
          "internalType": "uint256",
          "name": "_tokenId",
          "type": "uint256"
        },
        {
          "indexed": false,
          "internalType": "string",
          "name": "_title",
          "type": "string"
        },
        {
          "indexed": false,
          "internalType": "string",
          "name": "_authorName",
          "type": "string"
        },
        {
          "indexed": false,
          "internalType": "uint256",
          "name": "_price",
          "type": "uint256"
        },
        {
          "indexed": false,
          "internalType": "address",
          "name": "_author",
          "type": "address"
        },
        {
          "indexed": false,
          "internalType": "address",
          "name": "_current_owner",
          "type": "address"
        },
        {
          "indexed": false,
          "internalType": "address",
          "name": "_buyer",
          "type": "address"
        }
      ],
      "name": "LogArtSold",
      "type": "event"
    },
    {
      "anonymous": false,
      "inputs": [
        {
          "indexed": false,
          "internalType": "uint256",
          "name": "_tokenId",
          "type": "uint256"
        },
        {
          "indexed": false,
          "internalType": "string",
          "name": "_title",
          "type": "string"
        },
        {
          "indexed": false,
          "internalType": "string",
          "name": "_category",
          "type": "string"
        },
        {
          "indexed": false,
          "internalType": "string",
          "name": "_authorName",
          "type": "string"
        },
        {
          "indexed": false,
          "internalType": "uint256",
          "name": "_price",
          "type": "uint256"
        },
        {
          "indexed": false,
          "internalType": "address",
          "name": "_author",
          "type": "address"
        },
        {
          "indexed": false,
          "internalType": "address",
          "name": "_current_owner",
          "type": "address"
        }
      ],
      "name": "LogArtTokenCreate",
      "type": "event"
    },
    {
      "anonymous": false,
      "inputs": [
        {
          "indexed": false,
          "internalType": "address",
          "name": "account",
          "type": "address"
        }
      ],
      "name": "PausedEvent",
      "type": "event"
    },
    {
      "anonymous": false,
      "inputs": [
        {
          "indexed": true,
          "internalType": "address",
          "name": "from",
          "type": "address"
        },
        {
          "indexed": true,
          "internalType": "address",
          "name": "to",
          "type": "address"
        },
        {
          "indexed": true,
          "internalType": "uint256",
          "name": "tokenId",
          "type": "uint256"
        }
      ],
      "name": "Transfer",
      "type": "event"
    },
    {
      "anonymous": false,
      "inputs": [
        {
          "indexed": false,
          "internalType": "address",
          "name": "account",
          "type": "address"
        }
      ],
      "name": "UnpausedEvent",
      "type": "event"
    },
    {
      "inputs": [
        {
          "internalType": "uint256",
          "name": "",
          "type": "uint256"
        }
      ],
      "name": "arts",
      "outputs": [
        {
          "internalType": "uint256",
          "name": "id",
          "type": "uint256"
        },
        {
          "internalType": "string",
          "name": "title",
          "type": "string"
        },
        {
          "internalType": "string",
          "name": "description",
          "type": "string"
        },
        {
          "internalType": "uint256",
          "name": "price",
          "type": "uint256"
        },
        {
          "internalType": "string",
          "name": "date",
          "type": "string"
        },
        {
          "internalType": "string",
          "name": "authorName",
          "type": "string"
        },
        {
          "internalType": "address payable",
          "name": "author",
          "type": "address"
        },
        {
          "internalType": "address payable",
          "name": "owner",
          "type": "address"
        },
        {
          "internalType": "uint256",
          "name": "status",
          "type": "uint256"
        },
        {
          "internalType": "string",
          "name": "image",
          "type": "string"
        }
      ],
      "stateMutability": "view",
      "type": "function"
    },
    {
      "inputs": [],
      "name": "pause",
      "outputs": [],
      "stateMutability": "nonpayable",
      "type": "function"
    },
    {
      "inputs": [],
      "name": "unpause",
      "outputs": [],
      "stateMutability": "nonpayable",
      "type": "function"
    },
    {
      "inputs": [],
      "name": "name",
      "outputs": [
        {
          "internalType": "string",
          "name": "",
          "type": "string"
        }
      ],
      "stateMutability": "view",
      "type": "function"
    },
    {
      "inputs": [],
      "name": "symbol",
      "outputs": [
        {
          "internalType": "string",
          "name": "",
          "type": "string"
        }
      ],
      "stateMutability": "view",
      "type": "function"
    },
    {
      "inputs": [
        {
          "internalType": "uint256",
          "name": "tokenId",
          "type": "uint256"
        },
        {
          "internalType": "address",
          "name": "account",
          "type": "address"
        }
      ],
      "name": "isOwnerOf",
      "outputs": [
        {
          "internalType": "bool",
          "name": "",
          "type": "bool"
        }
      ],
      "stateMutability": "view",
      "type": "function"
    },
    {
      "inputs": [
        {
          "internalType": "address",
          "name": "owner",
          "type": "address"
        }
      ],
      "name": "balanceOf",
      "outputs": [
        {
          "internalType": "uint256",
          "name": "",
          "type": "uint256"
        }
      ],
      "stateMutability": "view",
      "type": "function"
    },
    {
      "inputs": [
        {
          "internalType": "uint256",
          "name": "tokenId",
          "type": "uint256"
        }
      ],
      "name": "ownerOf",
      "outputs": [
        {
          "internalType": "address",
          "name": "_owner",
          "type": "address"
        }
      ],
      "stateMutability": "view",
      "type": "function"
    },
    {
      "inputs": [
        {
          "internalType": "address",
          "name": "to",
          "type": "address"
        },
        {
          "internalType": "uint256",
          "name": "tokenId",
          "type": "uint256"
        }
      ],
      "name": "transfer",
      "outputs": [],
      "stateMutability": "nonpayable",
      "type": "function"
    },
    {
      "inputs": [
        {
          "internalType": "address",
          "name": "_from",
          "type": "address"
        },
        {
          "internalType": "address",
          "name": "_to",
          "type": "address"
        },
        {
          "internalType": "uint256",
          "name": "_tokenId",
          "type": "uint256"
        }
      ],
      "name": "safeTransferFrom",
      "outputs": [],
      "stateMutability": "payable",
      "type": "function"
    },
    {
      "inputs": [
        {
          "internalType": "address",
          "name": "from",
          "type": "address"
        },
        {
          "internalType": "address",
          "name": "to",
          "type": "address"
        },
        {
          "internalType": "uint256",
          "name": "tokenId",
          "type": "uint256"
        },
        {
          "internalType": "bytes",
          "name": "data",
          "type": "bytes"
        }
      ],
      "name": "safeTransferFrom",
      "outputs": [],
      "stateMutability": "payable",
      "type": "function"
    },
    {
      "inputs": [
        {
          "internalType": "address",
          "name": "from",
          "type": "address"
        },
        {
          "internalType": "address",
          "name": "to",
          "type": "address"
        },
        {
          "internalType": "uint256",
          "name": "tokenId",
          "type": "uint256"
        }
      ],
      "name": "transferFrom",
      "outputs": [],
      "stateMutability": "payable",
      "type": "function"
    },
    {
      "inputs": [
        {
          "internalType": "address",
          "name": "to",
          "type": "address"
        },
        {
          "internalType": "uint256",
          "name": "tokenId",
          "type": "uint256"
        }
      ],
      "name": "approve",
      "outputs": [],
      "stateMutability": "payable",
      "type": "function"
    },
    {
      "inputs": [
        {
          "internalType": "address",
          "name": "operator",
          "type": "address"
        },
        {
          "internalType": "bool",
          "name": "approved",
          "type": "bool"
        }
      ],
      "name": "setApprovalForAll",
      "outputs": [],
      "stateMutability": "nonpayable",
      "type": "function"
    },
    {
      "inputs": [
        {
          "internalType": "uint256",
          "name": "tokenId",
          "type": "uint256"
        }
      ],
      "name": "getApproved",
      "outputs": [
        {
          "internalType": "address",
          "name": "",
          "type": "address"
        }
      ],
      "stateMutability": "view",
      "type": "function"
    },
    {
      "inputs": [
        {
          "internalType": "address",
          "name": "owner",
          "type": "address"
        },
        {
          "internalType": "address",
          "name": "operator",
          "type": "address"
        }
      ],
      "name": "isApprovedForAll",
      "outputs": [
        {
          "internalType": "bool",
          "name": "",
          "type": "bool"
        }
      ],
      "stateMutability": "view",
      "type": "function"
    },
    {
      "inputs": [
        {
          "internalType": "string",
          "name": "_title",
          "type": "string"
        },
        {
          "internalType": "string",
          "name": "_desc",
          "type": "string"
        },
        {
          "internalType": "string",
          "name": "_date",
          "type": "string"
        },
        {
          "internalType": "string",
          "name": "_authorName",
          "type": "string"
        },
        {
          "internalType": "uint256",
          "name": "_price",
          "type": "uint256"
        },
        {
          "internalType": "string",
          "name": "_image",
          "type": "string"
        }
      ],
      "name": "createTokenAndSellArt",
      "outputs": [],
      "stateMutability": "nonpayable",
      "type": "function"
    },
    {
      "inputs": [
        {
          "internalType": "uint256",
          "name": "tokenId",
          "type": "uint256"
        }
      ],
      "name": "buyArt",
      "outputs": [],
      "stateMutability": "payable",
      "type": "function"
    },
    {
      "inputs": [
        {
          "internalType": "uint256",
          "name": "tokenId",
          "type": "uint256"
        },
        {
          "internalType": "uint256",
          "name": "price",
          "type": "uint256"
        }
      ],
      "name": "resellArt",
      "outputs": [],
      "stateMutability": "payable",
      "type": "function"
    },
    {
      "inputs": [
        {
          "internalType": "uint256",
          "name": "tokenId",
          "type": "uint256"
        }
      ],
      "name": "findArt",
      "outputs": [
        {
          "internalType": "uint256",
          "name": "",
          "type": "uint256"
        },
        {
          "internalType": "string",
          "name": "",
          "type": "string"
        },
        {
          "internalType": "string",
          "name": "",
          "type": "string"
        },
        {
          "internalType": "uint256",
          "name": "",
          "type": "uint256"
        },
        {
          "internalType": "uint256",
          "name": "status",
          "type": "uint256"
        },
        {
          "internalType": "string",
          "name": "",
          "type": "string"
        },
        {
          "internalType": "string",
          "name": "",
          "type": "string"
        },
        {
          "internalType": "address",
          "name": "",
          "type": "address"
        },
        {
          "internalType": "address payable",
          "name": "",
          "type": "address"
        },
        {
          "internalType": "string",
          "name": "",
          "type": "string"
        }
      ],
      "stateMutability": "view",
      "type": "function"
    },
    {
      "inputs": [],
      "name": "findAllArt",
      "outputs": [
        {
          "internalType": "uint256[]",
          "name": "",
          "type": "uint256[]"
        },
        {
          "internalType": "address[]",
          "name": "",
          "type": "address[]"
        },
        {
          "internalType": "address[]",
          "name": "",
          "type": "address[]"
        },
        {
          "internalType": "uint256[]",
          "name": "",
          "type": "uint256[]"
        }
      ],
      "stateMutability": "view",
      "type": "function"
    },
    {
      "inputs": [],
      "name": "findAllPendingArt",
      "outputs": [
        {
          "internalType": "uint256[]",
          "name": "",
          "type": "uint256[]"
        },
        {
          "internalType": "address[]",
          "name": "",
          "type": "address[]"
        },
        {
          "internalType": "address[]",
          "name": "",
          "type": "address[]"
        },
        {
          "internalType": "uint256[]",
          "name": "",
          "type": "uint256[]"
        }
      ],
      "stateMutability": "view",
      "type": "function"
    },
    {
      "inputs": [],
      "name": "findMyArts",
      "outputs": [
        {
          "internalType": "uint256[]",
          "name": "myArts",
          "type": "uint256[]"
        }
      ],
      "stateMutability": "view",
      "type": "function"
    },
    {
      "inputs": [
        {
          "internalType": "uint256",
          "name": "tokenId",
          "type": "uint256"
        }
      ],
      "name": "getArtAllTxns",
      "outputs": [
        {
          "internalType": "uint256[]",
          "name": "_id",
          "type": "uint256[]"
        },
        {
          "internalType": "uint256[]",
          "name": "_price",
          "type": "uint256[]"
        },
        {
          "internalType": "address[]",
          "name": "seller",
          "type": "address[]"
        },
        {
          "internalType": "address[]",
          "name": "buyer",
          "type": "address[]"
        },
        {
          "internalType": "uint256[]",
          "name": "_txnDate",
          "type": "uint256[]"
        }
      ],
      "stateMutability": "view",
      "type": "function"
    },
    {
      "inputs": [
        {
          "internalType": "uint256",
          "name": "tokenId",
          "type": "uint256"
        }
      ],
      "name": "burn",
      "outputs": [],
      "stateMutability": "nonpayable",
      "type": "function"
    },
    {
      "inputs": [
        {
          "internalType": "address",
          "name": "to",
          "type": "address"
        }
      ],
      "name": "mint",
      "outputs": [],
      "stateMutability": "nonpayable",
      "type": "function"
    }
  ],
  "bytecode": "0x60806040523480156200001157600080fd5b5060008060006101000a81548160ff0219169083151502179055506040518060400160405280600d81526020017f4d616c636f6c6d455243373231000000000000000000000000000000000000008152506002908051906020019062000079929190620000ce565b506040518060400160405280600481526020017f4d3732310000000000000000000000000000000000000000000000000000000081525060039080519060200190620000c7929190620000ce565b50620001e2565b828054620000dc90620001ad565b90600052602060002090601f0160209004810192826200010057600085556200014c565b82601f106200011b57805160ff19168380011785556200014c565b828001600101855582156200014c579182015b828111156200014b5782518255916020019190600101906200012e565b5b5090506200015b91906200015f565b5090565b5b808211156200017a57600081600090555060010162000160565b5090565b7f4e487b7100000000000000000000000000000000000000000000000000000000600052602260045260246000fd5b60006002820490506001821680620001c657607f821691505b602082108103620001dc57620001db6200017e565b5b50919050565b613dc180620001f26000396000f3fe6080604052600436106101815760003560e01c806370a08231116100d1578063b88d4fde1161008a578063e49a3d3b11610064578063e49a3d3b1461053c578063e57a104a14610565578063e985e9c5146105ab578063fc7a900b146105e857610181565b8063b88d4fde146104af578063ce971a10146104cb578063d2c088021461051157610181565b806370a08231146103a15780638456cb59146103de57806395d89b41146103f55780639ac016e214610420578063a22cb4651461045d578063a9059cbb1461048657610181565b80633e54fca11161013e57806342966c681161011857806342966c68146102f65780636352211e1461031f57806364262dcc1461035c5780636a6278421461037857610181565b80633e54fca1146102955780633f4ba83a146102c357806342842e0e146102da57610181565b8063063fc9661461018657806306fdde03146101b4578063081812fc146101df578063095ea7b31461021c5780630a37edf61461023857806323b872dd14610279575b600080fd5b34801561019257600080fd5b5061019b610604565b6040516101ab94939291906131d8565b60405180910390f35b3480156101c057600080fd5b506101c9610db3565b6040516101d691906132d2565b60405180910390f35b3480156101eb57600080fd5b5061020660048036038101906102019190613334565b610e45565b6040516102139190613370565b60405180910390f35b610236600480360381019061023191906133b7565b610e94565b005b34801561024457600080fd5b5061025f600480360381019061025a9190613334565b610f58565b6040516102709594939291906133f7565b60405180910390f35b610293600480360381019061028e919061346d565b6113a2565b005b3480156102a157600080fd5b506102aa611411565b6040516102ba94939291906131d8565b60405180910390f35b3480156102cf57600080fd5b506102d8611a5a565b005b6102f460048036038101906102ef919061346d565b611ac4565b005b34801561030257600080fd5b5061031d60048036038101906103189190613334565b611ac9565b005b34801561032b57600080fd5b5061034660048036038101906103419190613334565b611b00565b6040516103539190613370565b60405180910390f35b610376600480360381019061037191906134c0565b611b3d565b005b34801561038457600080fd5b5061039f600480360381019061039a9190613500565b611c36565b005b3480156103ad57600080fd5b506103c860048036038101906103c39190613500565b611c56565b6040516103d5919061353c565b60405180910390f35b3480156103ea57600080fd5b506103f3611c9f565b005b34801561040157600080fd5b5061040a611d0a565b60405161041791906132d2565b60405180910390f35b34801561042c57600080fd5b5061044760048036038101906104429190613557565b611d9c565b60405161045491906135b2565b60405180910390f35b34801561046957600080fd5b50610484600480360381019061047f91906135f9565b611e46565b005b34801561049257600080fd5b506104ad60048036038101906104a891906133b7565b611f7b565b005b6104c960048036038101906104c4919061376e565b611fd6565b005b3480156104d757600080fd5b506104f260048036038101906104ed9190613334565b611fdc565b6040516105089a99989796959493929190613812565b60405180910390f35b34801561051d57600080fd5b50610526612418565b60405161053391906138d1565b60405180910390f35b34801561054857600080fd5b50610563600480360381019061055e9190613994565b6125d1565b005b34801561057157600080fd5b5061058c60048036038101906105879190613334565b6125fe565b6040516105a29a99989796959493929190613aad565b60405180910390f35b3480156105b757600080fd5b506105d260048036038101906105cd9190613b6c565b61294a565b6040516105df91906135b2565b60405180910390f35b61060260048036038101906105fd9190613334565b6129de565b005b60608060608060006005540361074957600067ffffffffffffffff81111561062f5761062e613643565b5b60405190808252806020026020018201604052801561065d5781602001602082028036833780820191505090505b50600067ffffffffffffffff81111561067957610678613643565b5b6040519080825280602002602001820160405280156106a75781602001602082028036833780820191505090505b50600067ffffffffffffffff8111156106c3576106c2613643565b5b6040519080825280602002602001820160405280156106f15781602001602082028036833780820191505090505b50600067ffffffffffffffff81111561070d5761070c613643565b5b60405190808252806020026020018201604052801561073b5781602001602082028036833780820191505090505b509350935093509350610dad565b60006004805490509050600060055467ffffffffffffffff81111561077157610770613643565b5b60405190808252806020026020018201604052801561079f5781602001602082028036833780820191505090505b509050600060055467ffffffffffffffff8111156107c0576107bf613643565b5b6040519080825280602002602001820160405280156107ee5781602001602082028036833780820191505090505b509050600060055467ffffffffffffffff81111561080f5761080e613643565b5b60405190808252806020026020018201604052801561083d5781602001602082028036833780820191505090505b509050600060055467ffffffffffffffff81111561085e5761085d613643565b5b60405190808252806020026020018201604052801561088c5781602001602082028036833780820191505090505b5090506000805b6001876108a09190613bdb565b8111610d99576000600482815481106108bc576108bb613c0f565b5b90600052602060002090600a020160405180610140016040529081600082015481526020016001820180546108f090613c6d565b80601f016020809104026020016040519081016040528092919081815260200182805461091c90613c6d565b80156109695780601f1061093e57610100808354040283529160200191610969565b820191906000526020600020905b81548152906001019060200180831161094c57829003601f168201915b5050505050815260200160028201805461098290613c6d565b80601f01602080910402602001604051908101604052809291908181526020018280546109ae90613c6d565b80156109fb5780601f106109d0576101008083540402835291602001916109fb565b820191906000526020600020905b8154815290600101906020018083116109de57829003601f168201915b5050505050815260200160038201548152602001600482018054610a1e90613c6d565b80601f0160208091040260200160405190810160405280929190818152602001828054610a4a90613c6d565b8015610a975780601f10610a6c57610100808354040283529160200191610a97565b820191906000526020600020905b815481529060010190602001808311610a7a57829003601f168201915b50505050508152602001600582018054610ab090613c6d565b80601f0160208091040260200160405190810160405280929190818152602001828054610adc90613c6d565b8015610b295780601f10610afe57610100808354040283529160200191610b29565b820191906000526020600020905b815481529060010190602001808311610b0c57829003601f168201915b505050505081526020016006820160009054906101000a900473ffffffffffffffffffffffffffffffffffffffff1673ffffffffffffffffffffffffffffffffffffffff1673ffffffffffffffffffffffffffffffffffffffff1681526020016007820160009054906101000a900473ffffffffffffffffffffffffffffffffffffffff1673ffffffffffffffffffffffffffffffffffffffff1673ffffffffffffffffffffffffffffffffffffffff16815260200160088201548152602001600982018054610bf890613c6d565b80601f0160208091040260200160405190810160405280929190818152602001828054610c2490613c6d565b8015610c715780601f10610c4657610100808354040283529160200191610c71565b820191906000526020600020905b815481529060010190602001808311610c5457829003601f168201915b5050505050815250509050600181610100015103610d85578060000151878481518110610ca157610ca0613c0f565b5b6020026020010181815250508060c00151868481518110610cc557610cc4613c0f565b5b602002602001019073ffffffffffffffffffffffffffffffffffffffff16908173ffffffffffffffffffffffffffffffffffffffff16815250508060e00151858481518110610d1757610d16613c0f565b5b602002602001019073ffffffffffffffffffffffffffffffffffffffff16908173ffffffffffffffffffffffffffffffffffffffff1681525050806101000151848481518110610d6a57610d69613c0f565b5b6020026020010181815250508280610d8190613c9e565b9350505b508080610d9190613c9e565b915050610893565b508484848499509950995099505050505050505b90919293565b606060028054610dc290613c6d565b80601f0160208091040260200160405190810160405280929190818152602001828054610dee90613c6d565b8015610e3b5780601f10610e1057610100808354040283529160200191610e3b565b820191906000526020600020905b815481529060010190602001808311610e1e57829003601f168201915b5050505050905090565b6000610e50826129f9565b610e5957600080fd5b6008600083815260200190815260200160002060009054906101000a900473ffffffffffffffffffffffffffffffffffffffff169050919050565b610e9e8133611d9c565b610ea757600080fd5b816008600083815260200190815260200160002060006101000a81548173ffffffffffffffffffffffffffffffffffffffff021916908373ffffffffffffffffffffffffffffffffffffffff160217905550808273ffffffffffffffffffffffffffffffffffffffff163373ffffffffffffffffffffffffffffffffffffffff167f8c5be1e5ebec7d5bd14f71427d1e84f3dd0314c0f7b2291e5b200ac8c7c3b92560405160405180910390a45050565b60608060608060606000600a6000888152602001908152602001600020805480602002602001604051908101604052809291908181526020016000905b8282101561109b57838290600052602060002090600602016040518060c001604052908160008201548152602001600182015481526020016002820160009054906101000a900473ffffffffffffffffffffffffffffffffffffffff1673ffffffffffffffffffffffffffffffffffffffff1673ffffffffffffffffffffffffffffffffffffffff1681526020016003820160009054906101000a900473ffffffffffffffffffffffffffffffffffffffff1673ffffffffffffffffffffffffffffffffffffffff1673ffffffffffffffffffffffffffffffffffffffff1681526020016004820154815260200160058201548152505081526020019060010190610f95565b50505050905060008151905060008167ffffffffffffffff8111156110c3576110c2613643565b5b6040519080825280602002602001820160405280156110f15781602001602082028036833780820191505090505b50905060008267ffffffffffffffff8111156111105761110f613643565b5b60405190808252806020026020018201604052801561113e5781602001602082028036833780820191505090505b50905060008367ffffffffffffffff81111561115d5761115c613643565b5b60405190808252806020026020018201604052801561118b5781602001602082028036833780820191505090505b50905060008467ffffffffffffffff8111156111aa576111a9613643565b5b6040519080825280602002602001820160405280156111d85781602001602082028036833780820191505090505b50905060008567ffffffffffffffff8111156111f7576111f6613643565b5b6040519080825280602002602001820160405280156112255781602001602082028036833780820191505090505b50905060005b600188516112399190613bdb565b811161138257600088828151811061125457611253613c0f565b5b60200260200101519050806000015187838151811061127657611275613c0f565b5b602002602001018181525050806020015186838151811061129a57611299613c0f565b5b60200260200101818152505080604001518583815181106112be576112bd613c0f565b5b602002602001019073ffffffffffffffffffffffffffffffffffffffff16908173ffffffffffffffffffffffffffffffffffffffff168152505080606001518483815181106113105761130f613c0f565b5b602002602001019073ffffffffffffffffffffffffffffffffffffffff16908173ffffffffffffffffffffffffffffffffffffffff1681525050806080015183838151811061136257611361613c0f565b5b60200260200101818152505050808061137a90613c9e565b91505061122b565b5084848484849b509b509b509b509b505050505050505091939590929450565b600073ffffffffffffffffffffffffffffffffffffffff168273ffffffffffffffffffffffffffffffffffffffff16036113db57600080fd5b6113e58184611d9c565b6113ee57600080fd5b6113f88282612a6b565b61140157600080fd5b61140c838383612ad7565b505050565b6060806060806000600480549050905060008167ffffffffffffffff81111561143d5761143c613643565b5b60405190808252806020026020018201604052801561146b5781602001602082028036833780820191505090505b50905060008267ffffffffffffffff81111561148a57611489613643565b5b6040519080825280602002602001820160405280156114b85781602001602082028036833780820191505090505b50905060008367ffffffffffffffff8111156114d7576114d6613643565b5b6040519080825280602002602001820160405280156115055781602001602082028036833780820191505090505b50905060008467ffffffffffffffff81111561152457611523613643565b5b6040519080825280602002602001820160405280156115525781602001602082028036833780820191505090505b50905060005b6001866115659190613bdb565b8111611a425760006004828154811061158157611580613c0f565b5b90600052602060002090600a020160405180610140016040529081600082015481526020016001820180546115b590613c6d565b80601f01602080910402602001604051908101604052809291908181526020018280546115e190613c6d565b801561162e5780601f106116035761010080835404028352916020019161162e565b820191906000526020600020905b81548152906001019060200180831161161157829003601f168201915b5050505050815260200160028201805461164790613c6d565b80601f016020809104026020016040519081016040528092919081815260200182805461167390613c6d565b80156116c05780601f10611695576101008083540402835291602001916116c0565b820191906000526020600020905b8154815290600101906020018083116116a357829003601f168201915b50505050508152602001600382015481526020016004820180546116e390613c6d565b80601f016020809104026020016040519081016040528092919081815260200182805461170f90613c6d565b801561175c5780601f106117315761010080835404028352916020019161175c565b820191906000526020600020905b81548152906001019060200180831161173f57829003601f168201915b5050505050815260200160058201805461177590613c6d565b80601f01602080910402602001604051908101604052809291908181526020018280546117a190613c6d565b80156117ee5780601f106117c3576101008083540402835291602001916117ee565b820191906000526020600020905b8154815290600101906020018083116117d157829003601f168201915b505050505081526020016006820160009054906101000a900473ffffffffffffffffffffffffffffffffffffffff1673ffffffffffffffffffffffffffffffffffffffff1673ffffffffffffffffffffffffffffffffffffffff1681526020016007820160009054906101000a900473ffffffffffffffffffffffffffffffffffffffff1673ffffffffffffffffffffffffffffffffffffffff1673ffffffffffffffffffffffffffffffffffffffff168152602001600882015481526020016009820180546118bd90613c6d565b80601f01602080910402602001604051908101604052809291908181526020018280546118e990613c6d565b80156119365780601f1061190b57610100808354040283529160200191611936565b820191906000526020600020905b81548152906001019060200180831161191957829003601f168201915b5050505050815250509050806000015186838151811061195957611958613c0f565b5b6020026020010181815250508060c0015185838151811061197d5761197c613c0f565b5b602002602001019073ffffffffffffffffffffffffffffffffffffffff16908173ffffffffffffffffffffffffffffffffffffffff16815250508060e001518483815181106119cf576119ce613c0f565b5b602002602001019073ffffffffffffffffffffffffffffffffffffffff16908173ffffffffffffffffffffffffffffffffffffffff1681525050806101000151838381518110611a2257611a21613c0f565b5b602002602001018181525050508080611a3a90613c9e565b915050611558565b50838383839850985098509850505050505090919293565b60008054906101000a900460ff16611a7157600080fd5b60008060006101000a81548160ff0219169083151502179055507f0fb94798166272486ac3f3b109fdc6b92c586c8d8d7c4c8288f1f21ea36edc9833604051611aba9190613370565b60405180910390a1565b505050565b60008054906101000a900460ff1615611ae157600080fd5b611aeb3382612c33565b611af457600080fd5b611afd81612cc8565b50565b60006006600083815260200190815260200160002060009054906101000a900473ffffffffffffffffffffffffffffffffffffffff169050919050565b600073ffffffffffffffffffffffffffffffffffffffff163373ffffffffffffffffffffffffffffffffffffffff1603611b7657600080fd5b611b808233611d9c565b611b8957600080fd5b600160048381548110611b9f57611b9e613c0f565b5b90600052602060002090600a0201600801819055508060048381548110611bc957611bc8613c0f565b5b90600052602060002090600a02016003018190555060056000815480929190611bf190613c9e565b91905055507f8916ae292317d6f324a5ed02fea84bf6881d4065b6d575a8980442469b882b7a82600183604051611c2a93929190613d2b565b60405180910390a15050565b611c4981611c446001612df8565b612e06565b611c536001612f59565b50565b6000600760008373ffffffffffffffffffffffffffffffffffffffff1673ffffffffffffffffffffffffffffffffffffffff168152602001908152602001600020549050919050565b60008054906101000a900460ff1615611cb757600080fd5b60016000806101000a81548160ff0219169083151502179055507f34ff8c673d3f4966cacd4025e5a45c45764d0e9f9ebc866091e4363685a6c16c33604051611d009190613370565b60405180910390a1565b606060038054611d1990613c6d565b80601f0160208091040260200160405190810160405280929190818152602001828054611d4590613c6d565b8015611d925780601f10611d6757610100808354040283529160200191611d92565b820191906000526020600020905b815481529060010190602001808311611d7557829003601f168201915b5050505050905090565b6000806006600085815260200190815260200160002060009054906101000a900473ffffffffffffffffffffffffffffffffffffffff169050600073ffffffffffffffffffffffffffffffffffffffff168173ffffffffffffffffffffffffffffffffffffffff1603611e0e57600080fd5b8273ffffffffffffffffffffffffffffffffffffffff168173ffffffffffffffffffffffffffffffffffffffff161491505092915050565b3373ffffffffffffffffffffffffffffffffffffffff168273ffffffffffffffffffffffffffffffffffffffff1603611e7e57600080fd5b80600960003373ffffffffffffffffffffffffffffffffffffffff1673ffffffffffffffffffffffffffffffffffffffff16815260200190815260200160002060008473ffffffffffffffffffffffffffffffffffffffff1673ffffffffffffffffffffffffffffffffffffffff16815260200190815260200160002060006101000a81548160ff0219169083151502179055508173ffffffffffffffffffffffffffffffffffffffff163373ffffffffffffffffffffffffffffffffffffffff167f17307eab39ab6107e8899845ad3d59bd9653f200f220920489ca2b5937696c3183604051611f6f91906135b2565b60405180910390a35050565b600073ffffffffffffffffffffffffffffffffffffffff168273ffffffffffffffffffffffffffffffffffffffff1603611fb457600080fd5b611fbe8133611d9c565b611fc757600080fd5b611fd2338383612ad7565b5050565b50505050565b60006060806000806060806000806060600060048c8154811061200257612001613c0f565b5b90600052602060002090600a0201604051806101400160405290816000820154815260200160018201805461203690613c6d565b80601f016020809104026020016040519081016040528092919081815260200182805461206290613c6d565b80156120af5780601f10612084576101008083540402835291602001916120af565b820191906000526020600020905b81548152906001019060200180831161209257829003601f168201915b505050505081526020016002820180546120c890613c6d565b80601f01602080910402602001604051908101604052809291908181526020018280546120f490613c6d565b80156121415780601f1061211657610100808354040283529160200191612141565b820191906000526020600020905b81548152906001019060200180831161212457829003601f168201915b505050505081526020016003820154815260200160048201805461216490613c6d565b80601f016020809104026020016040519081016040528092919081815260200182805461219090613c6d565b80156121dd5780601f106121b2576101008083540402835291602001916121dd565b820191906000526020600020905b8154815290600101906020018083116121c057829003601f168201915b505050505081526020016005820180546121f690613c6d565b80601f016020809104026020016040519081016040528092919081815260200182805461222290613c6d565b801561226f5780601f106122445761010080835404028352916020019161226f565b820191906000526020600020905b81548152906001019060200180831161225257829003601f168201915b505050505081526020016006820160009054906101000a900473ffffffffffffffffffffffffffffffffffffffff1673ffffffffffffffffffffffffffffffffffffffff1673ffffffffffffffffffffffffffffffffffffffff1681526020016007820160009054906101000a900473ffffffffffffffffffffffffffffffffffffffff1673ffffffffffffffffffffffffffffffffffffffff1673ffffffffffffffffffffffffffffffffffffffff1681526020016008820154815260200160098201805461233e90613c6d565b80601f016020809104026020016040519081016040528092919081815260200182805461236a90613c6d565b80156123b75780601f1061238c576101008083540402835291602001916123b7565b820191906000526020600020905b81548152906001019060200180831161239a57829003601f168201915b5050505050815250509050806000015181602001518260400151836060015184610100015185608001518660a001518760c001518860e001518961012001519a509a509a509a509a509a509a509a509a509a50509193959799509193959799565b6060600073ffffffffffffffffffffffffffffffffffffffff163373ffffffffffffffffffffffffffffffffffffffff160361245357600080fd5b600061245e33611c56565b9050600081036124ba57600067ffffffffffffffff81111561248357612482613643565b5b6040519080825280602002602001820160405280156124b15781602001602082028036833780820191505090505b509150506125ce565b60008167ffffffffffffffff8111156124d6576124d5613643565b5b6040519080825280602002602001820160405280156125045781602001602082028036833780820191505090505b509050600080600480549050905060005b818110156125c5573373ffffffffffffffffffffffffffffffffffffffff166006600083815260200190815260200160002060009054906101000a900473ffffffffffffffffffffffffffffffffffffffff1673ffffffffffffffffffffffffffffffffffffffff16036125b2578084848151811061259757612596613c0f565b5b60200260200101818152505082806125ae90613c9e565b9350505b80806125bd90613c9e565b915050612515565b50829450505050505b90565b60006125dd6001612f59565b600560008154809291906125f090613c9e565b919050555050505050505050565b6004818154811061260e57600080fd5b90600052602060002090600a020160009150905080600001549080600101805461263790613c6d565b80601f016020809104026020016040519081016040528092919081815260200182805461266390613c6d565b80156126b05780601f10612685576101008083540402835291602001916126b0565b820191906000526020600020905b81548152906001019060200180831161269357829003601f168201915b5050505050908060020180546126c590613c6d565b80601f01602080910402602001604051908101604052809291908181526020018280546126f190613c6d565b801561273e5780601f106127135761010080835404028352916020019161273e565b820191906000526020600020905b81548152906001019060200180831161272157829003601f168201915b50505050509080600301549080600401805461275990613c6d565b80601f016020809104026020016040519081016040528092919081815260200182805461278590613c6d565b80156127d25780601f106127a7576101008083540402835291602001916127d2565b820191906000526020600020905b8154815290600101906020018083116127b557829003601f168201915b5050505050908060050180546127e790613c6d565b80601f016020809104026020016040519081016040528092919081815260200182805461281390613c6d565b80156128605780601f1061283557610100808354040283529160200191612860565b820191906000526020600020905b81548152906001019060200180831161284357829003601f168201915b5050505050908060060160009054906101000a900473ffffffffffffffffffffffffffffffffffffffff16908060070160009054906101000a900473ffffffffffffffffffffffffffffffffffffffff16908060080154908060090180546128c790613c6d565b80601f01602080910402602001604051908101604052809291908181526020018280546128f390613c6d565b80156129405780601f1061291557610100808354040283529160200191612940565b820191906000526020600020905b81548152906001019060200180831161292357829003601f168201915b505050505090508a565b6000600960008473ffffffffffffffffffffffffffffffffffffffff1673ffffffffffffffffffffffffffffffffffffffff16815260200190815260200160002060008373ffffffffffffffffffffffffffffffffffffffff1673ffffffffffffffffffffffffffffffffffffffff16815260200190815260200160002060009054906101000a900460ff16905092915050565b600560008154809291906129f190613d62565b919050555050565b6000806006600084815260200190815260200160002060009054906101000a900473ffffffffffffffffffffffffffffffffffffffff169050600073ffffffffffffffffffffffffffffffffffffffff168173ffffffffffffffffffffffffffffffffffffffff161415915050919050565b60008273ffffffffffffffffffffffffffffffffffffffff166008600084815260200190815260200160002060009054906101000a900473ffffffffffffffffffffffffffffffffffffffff1673ffffffffffffffffffffffffffffffffffffffff1614905092915050565b600760008373ffffffffffffffffffffffffffffffffffffffff1673ffffffffffffffffffffffffffffffffffffffff1681526020019081526020016000206000815480929190612b2790613c9e565b9190505550600760008473ffffffffffffffffffffffffffffffffffffffff1673ffffffffffffffffffffffffffffffffffffffff1681526020019081526020016000206000815480929190612b7c90613d62565b9190505550816006600083815260200190815260200160002060006101000a81548173ffffffffffffffffffffffffffffffffffffffff021916908373ffffffffffffffffffffffffffffffffffffffff160217905550808273ffffffffffffffffffffffffffffffffffffffff168473ffffffffffffffffffffffffffffffffffffffff167fddf252ad1be2c89b69c2b068fc378daa952ba7f163c4a11628f55a4df523b3ef60405160405180910390a4505050565b600080612c3f83611b00565b90508073ffffffffffffffffffffffffffffffffffffffff168473ffffffffffffffffffffffffffffffffffffffff161480612c815750612c80818561294a565b5b80612cbf57508373ffffffffffffffffffffffffffffffffffffffff16612ca784610e45565b73ffffffffffffffffffffffffffffffffffffffff16145b91505092915050565b60006006600083815260200190815260200160002060009054906101000a900473ffffffffffffffffffffffffffffffffffffffff169050612d0b600083612f6f565b6001600760008373ffffffffffffffffffffffffffffffffffffffff1673ffffffffffffffffffffffffffffffffffffffff1681526020019081526020016000206000828254612d5b9190613bdb565b925050819055506006600083815260200190815260200160002060006101000a81549073ffffffffffffffffffffffffffffffffffffffff021916905581600073ffffffffffffffffffffffffffffffffffffffff168273ffffffffffffffffffffffffffffffffffffffff167fddf252ad1be2c89b69c2b068fc378daa952ba7f163c4a11628f55a4df523b3ef60405160405180910390a45050565b600081600001549050919050565b600073ffffffffffffffffffffffffffffffffffffffff168273ffffffffffffffffffffffffffffffffffffffff1603612e3f57600080fd5b612e48816129f9565b15612e5257600080fd5b600760008373ffffffffffffffffffffffffffffffffffffffff1673ffffffffffffffffffffffffffffffffffffffff1681526020019081526020016000206000815480929190612ea290613c9e565b9190505550816006600083815260200190815260200160002060006101000a81548173ffffffffffffffffffffffffffffffffffffffff021916908373ffffffffffffffffffffffffffffffffffffffff160217905550808273ffffffffffffffffffffffffffffffffffffffff16600073ffffffffffffffffffffffffffffffffffffffff167fddf252ad1be2c89b69c2b068fc378daa952ba7f163c4a11628f55a4df523b3ef60405160405180910390a45050565b6001816000016000828254019250508190555050565b816008600083815260200190815260200160002060006101000a81548173ffffffffffffffffffffffffffffffffffffffff021916908373ffffffffffffffffffffffffffffffffffffffff160217905550808273ffffffffffffffffffffffffffffffffffffffff163373ffffffffffffffffffffffffffffffffffffffff167f8c5be1e5ebec7d5bd14f71427d1e84f3dd0314c0f7b2291e5b200ac8c7c3b92560405160405180910390a45050565b600081519050919050565b600082825260208201905092915050565b6000819050602082019050919050565b6000819050919050565b61305f8161304c565b82525050565b60006130718383613056565b60208301905092915050565b6000602082019050919050565b600061309582613020565b61309f818561302b565b93506130aa8361303c565b8060005b838110156130db5781516130c28882613065565b97506130cd8361307d565b9250506001810190506130ae565b5085935050505092915050565b600081519050919050565b600082825260208201905092915050565b6000819050602082019050919050565b600073ffffffffffffffffffffffffffffffffffffffff82169050919050565b600061313f82613114565b9050919050565b61314f81613134565b82525050565b60006131618383613146565b60208301905092915050565b6000602082019050919050565b6000613185826130e8565b61318f81856130f3565b935061319a83613104565b8060005b838110156131cb5781516131b28882613155565b97506131bd8361316d565b92505060018101905061319e565b5085935050505092915050565b600060808201905081810360008301526131f2818761308a565b90508181036020830152613206818661317a565b9050818103604083015261321a818561317a565b9050818103606083015261322e818461308a565b905095945050505050565b600081519050919050565b600082825260208201905092915050565b60005b83811015613273578082015181840152602081019050613258565b83811115613282576000848401525b50505050565b6000601f19601f8301169050919050565b60006132a482613239565b6132ae8185613244565b93506132be818560208601613255565b6132c781613288565b840191505092915050565b600060208201905081810360008301526132ec8184613299565b905092915050565b6000604051905090565b600080fd5b600080fd5b6133118161304c565b811461331c57600080fd5b50565b60008135905061332e81613308565b92915050565b60006020828403121561334a576133496132fe565b5b60006133588482850161331f565b91505092915050565b61336a81613134565b82525050565b60006020820190506133856000830184613361565b92915050565b61339481613134565b811461339f57600080fd5b50565b6000813590506133b18161338b565b92915050565b600080604083850312156133ce576133cd6132fe565b5b60006133dc858286016133a2565b92505060206133ed8582860161331f565b9150509250929050565b600060a0820190508181036000830152613411818861308a565b90508181036020830152613425818761308a565b90508181036040830152613439818661317a565b9050818103606083015261344d818561317a565b90508181036080830152613461818461308a565b90509695505050505050565b600080600060608486031215613486576134856132fe565b5b6000613494868287016133a2565b93505060206134a5868287016133a2565b92505060406134b68682870161331f565b9150509250925092565b600080604083850312156134d7576134d66132fe565b5b60006134e58582860161331f565b92505060206134f68582860161331f565b9150509250929050565b600060208284031215613516576135156132fe565b5b6000613524848285016133a2565b91505092915050565b6135368161304c565b82525050565b6000602082019050613551600083018461352d565b92915050565b6000806040838503121561356e5761356d6132fe565b5b600061357c8582860161331f565b925050602061358d858286016133a2565b9150509250929050565b60008115159050919050565b6135ac81613597565b82525050565b60006020820190506135c760008301846135a3565b92915050565b6135d681613597565b81146135e157600080fd5b50565b6000813590506135f3816135cd565b92915050565b600080604083850312156136105761360f6132fe565b5b600061361e858286016133a2565b925050602061362f858286016135e4565b9150509250929050565b600080fd5b600080fd5b7f4e487b7100000000000000000000000000000000000000000000000000000000600052604160045260246000fd5b61367b82613288565b810181811067ffffffffffffffff8211171561369a57613699613643565b5b80604052505050565b60006136ad6132f4565b90506136b98282613672565b919050565b600067ffffffffffffffff8211156136d9576136d8613643565b5b6136e282613288565b9050602081019050919050565b82818337600083830152505050565b600061371161370c846136be565b6136a3565b90508281526020810184848401111561372d5761372c61363e565b5b6137388482856136ef565b509392505050565b600082601f83011261375557613754613639565b5b81356137658482602086016136fe565b91505092915050565b60008060008060808587031215613788576137876132fe565b5b6000613796878288016133a2565b94505060206137a7878288016133a2565b93505060406137b88782880161331f565b925050606085013567ffffffffffffffff8111156137d9576137d8613303565b5b6137e587828801613740565b91505092959194509250565b60006137fc82613114565b9050919050565b61380c816137f1565b82525050565b600061014082019050613828600083018d61352d565b818103602083015261383a818c613299565b9050818103604083015261384e818b613299565b905061385d606083018a61352d565b61386a608083018961352d565b81810360a083015261387c8188613299565b905081810360c08301526138908187613299565b905061389f60e0830186613361565b6138ad610100830185613803565b8181036101208301526138c08184613299565b90509b9a5050505050505050505050565b600060208201905081810360008301526138eb818461308a565b905092915050565b600067ffffffffffffffff82111561390e5761390d613643565b5b61391782613288565b9050602081019050919050565b6000613937613932846138f3565b6136a3565b9050828152602081018484840111156139535761395261363e565b5b61395e8482856136ef565b509392505050565b600082601f83011261397b5761397a613639565b5b813561398b848260208601613924565b91505092915050565b60008060008060008060c087890312156139b1576139b06132fe565b5b600087013567ffffffffffffffff8111156139cf576139ce613303565b5b6139db89828a01613966565b965050602087013567ffffffffffffffff8111156139fc576139fb613303565b5b613a0889828a01613966565b955050604087013567ffffffffffffffff811115613a2957613a28613303565b5b613a3589828a01613966565b945050606087013567ffffffffffffffff811115613a5657613a55613303565b5b613a6289828a01613966565b9350506080613a7389828a0161331f565b92505060a087013567ffffffffffffffff811115613a9457613a93613303565b5b613aa089828a01613966565b9150509295509295509295565b600061014082019050613ac3600083018d61352d565b8181036020830152613ad5818c613299565b90508181036040830152613ae9818b613299565b9050613af8606083018a61352d565b8181036080830152613b0a8189613299565b905081810360a0830152613b1e8188613299565b9050613b2d60c0830187613803565b613b3a60e0830186613803565b613b4861010083018561352d565b818103610120830152613b5b8184613299565b90509b9a5050505050505050505050565b60008060408385031215613b8357613b826132fe565b5b6000613b91858286016133a2565b9250506020613ba2858286016133a2565b9150509250929050565b7f4e487b7100000000000000000000000000000000000000000000000000000000600052601160045260246000fd5b6000613be68261304c565b9150613bf18361304c565b925082821015613c0457613c03613bac565b5b828203905092915050565b7f4e487b7100000000000000000000000000000000000000000000000000000000600052603260045260246000fd5b7f4e487b7100000000000000000000000000000000000000000000000000000000600052602260045260246000fd5b60006002820490506001821680613c8557607f821691505b602082108103613c9857613c97613c3e565b5b50919050565b6000613ca98261304c565b91507fffffffffffffffffffffffffffffffffffffffffffffffffffffffffffffffff8203613cdb57613cda613bac565b5b600182019050919050565b6000819050919050565b6000819050919050565b6000613d15613d10613d0b84613ce6565b613cf0565b61304c565b9050919050565b613d2581613cfa565b82525050565b6000606082019050613d40600083018661352d565b613d4d6020830185613d1c565b613d5a604083018461352d565b949350505050565b6000613d6d8261304c565b915060008203613d8057613d7f613bac565b5b60018203905091905056fea264697066735822122072d67cf2705d77cff0f313d61d7261de68ee6ae4541e868c465826414b71af4964736f6c634300080e0033",
  "immutableReferences": {},
  "source": "pragma solidity ^0.8.14;\r\n\r\nimport \"./Counters.sol\";\r\n\r\ninterface ERC721 {\r\n    //fns\r\n    function balanceOf(address owner) external view returns (uint256);\r\n    function ownerOf(uint256 tokenId) external view returns (address);\r\n    function safeTransferFrom(address _from, address _to, uint256 _tokenId) external payable;\r\n    function safeTransferFrom(address from, address to, uint256 tokenId, bytes memory data) external payable;\r\n    function transferFrom(address from, address to, uint256 tokenId) external payable;\r\n    function approve(address to, uint256 tokenId) external payable;\r\n    function setApprovalForAll(address operator, bool approved) external;\r\n    function getApproved(uint256 tokenId) external view returns (address);\r\n    function isApprovedForAll(address owner, address operator) external view returns (bool);\r\n\r\n    //events\r\n    event Transfer(address indexed from, address indexed to, uint256 indexed tokenId);\r\n    event Approval(address indexed owner, address indexed approved, uint256 indexed tokenId);\r\n    event ApprovalForAll(address indexed owner, address indexed operator, bool approved);\r\n}\r\n\r\ncontract Pausible {\r\n    event PausedEvent(address account);\r\n    event UnpausedEvent(address account);\r\n    bool private paused;\r\n\r\n    constructor() {\r\n        paused = false;\r\n    }\r\n\r\n    modifier whenNotPaused() {\r\n        require(!paused);\r\n        _;\r\n    }\r\n\r\n    modifier whenPaused() {\r\n        require(paused);\r\n        _;\r\n    }\r\n\r\n    function pause() public whenNotPaused {\r\n        paused = true;\r\n        emit PausedEvent(msg.sender);\r\n    }\r\n\r\n    function unpause() public whenPaused {\r\n        paused = false;\r\n        emit UnpausedEvent(msg.sender);\r\n    }\r\n}\r\n\r\ncontract MalcolmERC721 is ERC721, Pausible {\r\n    using Counters for Counters.Counter;\r\n    Counters.Counter private _tokenIdTracker;\r\n\r\n    string private _name;\r\n    string private _symbol;\r\n    Art[] public arts;\r\n    uint256 private pendingArtCount;\r\n    mapping( uint256 => address ) private _tokenOwner;\r\n    mapping( address => uint256 ) _ownedTokensCount;\r\n    mapping( uint256 => address ) private _tokenApprovals;\r\n    mapping( address => mapping( address => bool ) ) private _operatorApprovals;\r\n    mapping( uint256 => ArtTxn[] ) private artTxns;\r\n    //uint256 public index;\r\n\r\n    event LogArtTokenCreate(uint _tokenId, string _title, string _category, string _authorName,\r\n                    uint256 _price, address _author, address _current_owner);\r\n    event LogArtSold(uint _tokenId, string _title, string _authorName, uint256 _price, address _author, \r\n                    address _current_owner, address _buyer);\r\n    event LogArtResell(uint _tokenId, uint _status, uint256 _price);\r\n\r\n    struct Art {\r\n        uint256 id;\r\n        string title;\r\n        string description;\r\n        uint256 price;\r\n        string date;\r\n        string authorName;\r\n        address payable author;\r\n        address payable owner;\r\n        uint status;\r\n        string image;\r\n    }\r\n\r\n    struct ArtTxn {\r\n       uint256 id; \r\n       uint256 price;\r\n       address seller;\r\n       address buyer;\r\n       uint txnDate;\r\n       uint status;\r\n    }\r\n\r\n    constructor() {\r\n        _name = \"MalcolmERC721\";\r\n        _symbol = \"M721\";\r\n    }\r\n\r\n    function name() external view returns (string memory) {\r\n        return _name;\r\n    }\r\n\r\n    function symbol() external view returns (string memory) {\r\n        return _symbol;\r\n    }\r\n\r\n    function isOwnerOf(uint256 tokenId, address account) public view returns (bool) {\r\n        address owner = _tokenOwner[tokenId];\r\n        require(owner != address(0));\r\n        return owner == account;\r\n    }\r\n\r\n    function isApproved(address to, uint256 tokenId) private view returns (bool) {\r\n        return _tokenApprovals[tokenId] == to;\r\n    }\r\n\r\n    function balanceOf(address owner) public view returns (uint256) {\r\n        return _ownedTokensCount[owner];\r\n    }\r\n\r\n    function ownerOf(uint256 tokenId) public view returns (address _owner) {\r\n        _owner = _tokenOwner[tokenId];\r\n    }\r\n\r\n    function _transfer(address from, address to, uint256 tokenId) private {\r\n        _ownedTokensCount[to]++;\r\n        _ownedTokensCount[from]--;\r\n        _tokenOwner[tokenId] = to;\r\n        emit Transfer(from, to, tokenId);\r\n    }\r\n\r\n    function transfer(address to, uint256 tokenId) public {\r\n        require(to != address(0));\r\n        require(isOwnerOf(tokenId, msg.sender));\r\n        _transfer(msg.sender, to, tokenId);\r\n    }\r\n\r\n    function safeTransferFrom(address _from, address _to, uint256 _tokenId) external payable {\r\n        //not impltd\r\n        return;\r\n    }\r\n    function safeTransferFrom(address from, address to, uint256 tokenId, bytes memory data) external payable {\r\n        //not impltd\r\n        return;\r\n    }\r\n\r\n    function transferFrom(address from, address to, uint256 tokenId) external payable {\r\n        require(to != address(0));\r\n        require(isOwnerOf(tokenId, from));\r\n        require(isApproved(to, tokenId));\r\n        _transfer(from, to, tokenId);\r\n    }\r\n\r\n    function approve(address to, uint256 tokenId) external payable {\r\n        //approve another entity's permission in order to transfer token on owner's behalf\r\n        require(isOwnerOf(tokenId, msg.sender));\r\n        _tokenApprovals[tokenId] = to;\r\n        emit Approval(msg.sender, to, tokenId);\r\n    }\r\n\r\n    function _approve(address to, uint256 tokenId) internal {\r\n        _tokenApprovals[tokenId] = to;\r\n        emit Approval(msg.sender, to, tokenId);\r\n    }\r\n\r\n    function _isApprovedOrOwner(address spender, uint256 tokenId) internal view virtual returns (bool) {\r\n        address owner = ownerOf(tokenId);\r\n        return (spender == owner || isApprovedForAll(owner, spender) || getApproved(tokenId) == spender);\r\n    }\r\n\r\n    function setApprovalForAll(address operator, bool approved) external{\r\n        //enable/disable the approval of a third party(operator) to manage all assets for msg.sender\r\n        require(operator != msg.sender);\r\n        _operatorApprovals[msg.sender][operator] = approved;\r\n        emit ApprovalForAll(msg.sender, operator, approved);\r\n    }\r\n\r\n    function getApproved(uint256 tokenId) public view override returns (address) {\r\n        //gets approved address for a single NFT\r\n        require(_exist(tokenId));\r\n        return _tokenApprovals[tokenId];\r\n    }\r\n\r\n    function _exist(uint256 tokenId) internal view returns (bool) {\r\n        address owner = _tokenOwner[tokenId];\r\n        return owner != address(0);\r\n    }\r\n\r\n    function isApprovedForAll(address owner, address operator) public view override returns (bool) {\r\n        //check if another address is allowed for an operator\r\n        return _operatorApprovals[owner][operator];\r\n    }\r\n\r\n    function createTokenAndSellArt(string memory _title, string memory _desc, string memory _date,\r\n            string memory _authorName, uint256 _price, string memory _image) public {\r\n        //Not impltd yet\r\n        uint256 _tokenId;\r\n        //emit LogArtTokenCreate(_tokenId, _title, _date, _authorName, _price, msg.sender, msg.sender);\r\n        //index++;\r\n        _tokenIdTracker.increment();\r\n        pendingArtCount++;\r\n        return;\r\n    }\r\n\r\n    function buyArt(uint256 tokenId) payable public {\r\n        //Not impltd yet\r\n        pendingArtCount--;\r\n        //emit LogArtSold(_tokenId, _title, _authorName, _price, _author, _current_owner, msg.sender);\r\n        return;\r\n    }\r\n\r\n    function resellArt(uint tokenId, uint256 price) payable public {\r\n        require(msg.sender != address(0));\r\n        require(isOwnerOf(tokenId, msg.sender));\r\n        arts[tokenId].status = 1;\r\n        arts[tokenId].price = price;\r\n        pendingArtCount++;\r\n        emit LogArtResell(tokenId, 1, price);\r\n        return;\r\n    }\r\n\r\n    function findArt(uint256 tokenId) public view returns (\r\n            uint256, string memory, string memory, uint256, uint status, string memory, \r\n            string memory, address, address payable, string memory) {\r\n        Art memory art = arts[tokenId];\r\n        return (art.id, art.title, art.description, art.price, art.status, art.date,\r\n            art.authorName, art.author, art.owner, art.image);\r\n    }\r\n\r\n    function findAllArt() public view returns (\r\n            uint256[] memory, address[] memory, address[] memory, uint[] memory) {\r\n        uint256 arrLength = arts.length;\r\n        uint256[] memory ids = new uint256[](arrLength);\r\n        address[] memory authors = new address[](arrLength);\r\n        address[] memory owners = new address[](arrLength);\r\n        uint[] memory status = new uint[](arrLength);\r\n        for (uint i = 0; i <= arrLength - 1; i++) {\r\n            Art memory art = arts[i];\r\n            ids[i] = art.id;\r\n            authors[i] = art.author;\r\n            owners[i] = art.owner;\r\n            status[i] = art.status;\r\n        }\r\n        return (ids, authors, owners, status);\r\n    }\r\n    \r\n    function findAllPendingArt() public view returns (\r\n            uint256[] memory, address[] memory, address[] memory,  uint[] memory) {\r\n        if (pendingArtCount == 0) {\r\n            return (new uint256[](0),new address[](0), new address[](0), new uint[](0));  \r\n        } \r\n        else {\r\n            uint256 arrLength = arts.length;\r\n            uint256[] memory ids = new uint256[](pendingArtCount);\r\n            address[] memory authors = new address[](pendingArtCount); \r\n            address[] memory owners= new address[](pendingArtCount); \r\n            uint[] memory status = new uint[](pendingArtCount);\r\n            uint256 idx = 0;\r\n            for (uint i = 0; i <= arrLength - 1; i++) {\r\n                Art memory art = arts[i];\r\n                if (art.status == 1) {\r\n                    ids[idx] = art.id;\r\n                    authors[idx] = art.author;\r\n                    owners[idx] = art.owner;\r\n                    status[idx] = art.status; \r\n                    idx++;\r\n                }\r\n            }\r\n            return (ids,authors, owners, status);\r\n        }  \r\n    }\r\n\r\n    function findMyArts() public view returns (uint256[] memory myArts) {\r\n        require(msg.sender != address(0));\r\n        uint256 numOftokens = balanceOf(msg.sender);\r\n        if (numOftokens == 0) {\r\n            return new uint256[](0);\r\n        } else {\r\n            uint256[] memory myArts = new uint256[](numOftokens);\r\n            uint256 idx = 0;\r\n            uint256 arrLength = arts.length;\r\n            for (uint256 i = 0; i < arrLength; i++) {\r\n                if (_tokenOwner[i] == msg.sender) {\r\n                    myArts[idx] = i;\r\n                    idx++;\r\n                }\r\n            }\r\n            return myArts;\r\n        }\r\n    }\r\n\r\n    function getArtAllTxns(uint256 tokenId) public view returns (\r\n            uint256[] memory _id, uint256[] memory _price,address[] memory seller, \r\n            address[] memory buyer, uint[] memory _txnDate) {\r\n        ArtTxn[] memory artTxnList = artTxns[tokenId];\r\n        uint256 arrLength = artTxnList.length;\r\n        uint256[] memory ids = new uint256[](arrLength);\r\n        uint256[] memory prices = new uint256[](arrLength);\r\n        address[] memory sellers = new address[](arrLength);\r\n        address[] memory buyers = new address[](arrLength);\r\n        uint[] memory txnDates = new uint[](arrLength);\r\n        for (uint i = 0; i <= artTxnList.length - 1; i++) {\r\n           ArtTxn memory artTxn = artTxnList[i];\r\n           ids[i] = artTxn.id;\r\n           prices[i] = artTxn.price; \r\n           sellers[i] = artTxn.seller; \r\n           buyers[i] = artTxn.buyer; \r\n           txnDates[i] = artTxn.txnDate; \r\n        }\r\n        return (ids,prices,sellers,buyers, txnDates);\r\n    }\r\n\r\n    function burn(uint256 tokenId) public whenNotPaused {\r\n        require(_isApprovedOrOwner(msg.sender, tokenId));\r\n        _burn(tokenId);\r\n    }\r\n\r\n    function _burn(uint256 tokenId) internal {\r\n        address owner = _tokenOwner[tokenId];\r\n        //clear approval\r\n        _approve(address(0), tokenId);\r\n        _ownedTokensCount[owner] -= 1;\r\n        delete _tokenOwner[tokenId];\r\n        emit Transfer(owner, address(0), tokenId);\r\n    }\r\n\r\n    function mint(address to) public {\r\n        //mint w auto increment ID\r\n        _mint(to, _tokenIdTracker.current());\r\n        _tokenIdTracker.increment();\r\n    }\r\n\r\n    function _mint(address to, uint256 tokenId) internal {\r\n        require(to != address(0));\r\n        require(!_exist(tokenId));\r\n        _ownedTokensCount[to]++;\r\n        _tokenOwner[tokenId] = to;\r\n        emit Transfer(address(0), to, tokenId);\r\n    }\r\n\r\n\r\n}",
  "sourcePath": "C:\\Users\\zheru\\OneDrive\\blockchain\\malcolm-eth-app2\\contracts\\MalcolmERC721.sol",
  "compiler": {
    "name": "solc",
    "version": "0.8.14+commit.80d49f37.Emscripten.clang"
  },
  "schemaVersion": "3.4.7",
  "updatedAt": "2022-06-04T13:23:18.180Z",
  "devdoc": {
    "kind": "dev",
    "methods": {},
    "version": 1
  },
  "userdoc": {
    "kind": "user",
    "methods": {},
    "version": 1
  }
}