{
  "contractName": "MalcolmERC20",
  "abi": [
    {
      "inputs": [],
      "stateMutability": "payable",
      "type": "constructor"
    },
    {
      "anonymous": false,
      "inputs": [
        {
          "indexed": true,
          "internalType": "address",
          "name": "owner",
          "type": "address"
        },
        {
          "indexed": true,
          "internalType": "address",
          "name": "spender",
          "type": "address"
        },
        {
          "indexed": false,
          "internalType": "uint256",
          "name": "value",
          "type": "uint256"
        }
      ],
      "name": "Approval",
      "type": "event"
    },
    {
      "anonymous": false,
      "inputs": [
        {
          "indexed": false,
          "internalType": "address",
          "name": "from",
          "type": "address"
        },
        {
          "indexed": false,
          "internalType": "uint256",
          "name": "value",
          "type": "uint256"
        }
      ],
      "name": "Burn",
      "type": "event"
    },
    {
      "anonymous": false,
      "inputs": [
        {
          "indexed": false,
          "internalType": "address",
          "name": "account",
          "type": "address"
        }
      ],
      "name": "PausedEvent",
      "type": "event"
    },
    {
      "anonymous": false,
      "inputs": [
        {
          "indexed": false,
          "internalType": "address",
          "name": "from",
          "type": "address"
        },
        {
          "indexed": false,
          "internalType": "uint256",
          "name": "value",
          "type": "uint256"
        }
      ],
      "name": "Receive",
      "type": "event"
    },
    {
      "anonymous": false,
      "inputs": [
        {
          "indexed": true,
          "internalType": "address",
          "name": "from",
          "type": "address"
        },
        {
          "indexed": true,
          "internalType": "address",
          "name": "to",
          "type": "address"
        },
        {
          "indexed": false,
          "internalType": "uint256",
          "name": "value",
          "type": "uint256"
        }
      ],
      "name": "Transfer",
      "type": "event"
    },
    {
      "anonymous": false,
      "inputs": [
        {
          "indexed": false,
          "internalType": "address",
          "name": "account",
          "type": "address"
        }
      ],
      "name": "UnpausedEvent",
      "type": "event"
    },
    {
      "stateMutability": "payable",
      "type": "fallback"
    },
    {
      "inputs": [
        {
          "internalType": "address",
          "name": "account",
          "type": "address"
        }
      ],
      "name": "addAdmin",
      "outputs": [],
      "stateMutability": "nonpayable",
      "type": "function"
    },
    {
      "inputs": [
        {
          "internalType": "address",
          "name": "account",
          "type": "address"
        }
      ],
      "name": "isAdmin",
      "outputs": [
        {
          "internalType": "bool",
          "name": "",
          "type": "bool"
        }
      ],
      "stateMutability": "view",
      "type": "function"
    },
    {
      "inputs": [],
      "name": "owner",
      "outputs": [
        {
          "internalType": "address",
          "name": "",
          "type": "address"
        }
      ],
      "stateMutability": "view",
      "type": "function"
    },
    {
      "inputs": [],
      "name": "pause",
      "outputs": [],
      "stateMutability": "nonpayable",
      "type": "function"
    },
    {
      "inputs": [
        {
          "internalType": "address",
          "name": "account",
          "type": "address"
        }
      ],
      "name": "removeAdmin",
      "outputs": [],
      "stateMutability": "nonpayable",
      "type": "function"
    },
    {
      "inputs": [],
      "name": "tokenSummary",
      "outputs": [
        {
          "internalType": "address",
          "name": "initialAccount",
          "type": "address"
        },
        {
          "internalType": "string",
          "name": "name",
          "type": "string"
        },
        {
          "internalType": "string",
          "name": "symbol",
          "type": "string"
        }
      ],
      "stateMutability": "view",
      "type": "function"
    },
    {
      "inputs": [
        {
          "internalType": "address",
          "name": "newOwner",
          "type": "address"
        }
      ],
      "name": "transferOwnership",
      "outputs": [],
      "stateMutability": "nonpayable",
      "type": "function"
    },
    {
      "inputs": [],
      "name": "unpause",
      "outputs": [],
      "stateMutability": "nonpayable",
      "type": "function"
    },
    {
      "stateMutability": "payable",
      "type": "receive"
    },
    {
      "inputs": [],
      "name": "name",
      "outputs": [
        {
          "internalType": "string",
          "name": "",
          "type": "string"
        }
      ],
      "stateMutability": "view",
      "type": "function"
    },
    {
      "inputs": [],
      "name": "symbol",
      "outputs": [
        {
          "internalType": "string",
          "name": "",
          "type": "string"
        }
      ],
      "stateMutability": "view",
      "type": "function"
    },
    {
      "inputs": [],
      "name": "decimals",
      "outputs": [
        {
          "internalType": "uint8",
          "name": "",
          "type": "uint8"
        }
      ],
      "stateMutability": "view",
      "type": "function"
    },
    {
      "inputs": [],
      "name": "totalSupply",
      "outputs": [
        {
          "internalType": "uint256",
          "name": "",
          "type": "uint256"
        }
      ],
      "stateMutability": "view",
      "type": "function"
    },
    {
      "inputs": [
        {
          "internalType": "address",
          "name": "owner",
          "type": "address"
        }
      ],
      "name": "balanceOf",
      "outputs": [
        {
          "internalType": "uint256",
          "name": "",
          "type": "uint256"
        }
      ],
      "stateMutability": "view",
      "type": "function"
    },
    {
      "inputs": [
        {
          "internalType": "address",
          "name": "to",
          "type": "address"
        },
        {
          "internalType": "uint256",
          "name": "value",
          "type": "uint256"
        }
      ],
      "name": "transfer",
      "outputs": [
        {
          "internalType": "bool",
          "name": "",
          "type": "bool"
        }
      ],
      "stateMutability": "nonpayable",
      "type": "function"
    },
    {
      "inputs": [
        {
          "internalType": "address",
          "name": "from",
          "type": "address"
        },
        {
          "internalType": "address",
          "name": "to",
          "type": "address"
        },
        {
          "internalType": "uint256",
          "name": "value",
          "type": "uint256"
        }
      ],
      "name": "transferFrom",
      "outputs": [
        {
          "internalType": "bool",
          "name": "",
          "type": "bool"
        }
      ],
      "stateMutability": "nonpayable",
      "type": "function"
    },
    {
      "inputs": [
        {
          "internalType": "address",
          "name": "spender",
          "type": "address"
        },
        {
          "internalType": "uint256",
          "name": "value",
          "type": "uint256"
        }
      ],
      "name": "approve",
      "outputs": [
        {
          "internalType": "bool",
          "name": "",
          "type": "bool"
        }
      ],
      "stateMutability": "nonpayable",
      "type": "function"
    },
    {
      "inputs": [
        {
          "internalType": "address",
          "name": "owner",
          "type": "address"
        },
        {
          "internalType": "address",
          "name": "spender",
          "type": "address"
        }
      ],
      "name": "allowance",
      "outputs": [
        {
          "internalType": "uint256",
          "name": "",
          "type": "uint256"
        }
      ],
      "stateMutability": "view",
      "type": "function"
    },
    {
      "inputs": [
        {
          "internalType": "uint256",
          "name": "value",
          "type": "uint256"
        }
      ],
      "name": "burn",
      "outputs": [
        {
          "internalType": "bool",
          "name": "success",
          "type": "bool"
        }
      ],
      "stateMutability": "nonpayable",
      "type": "function"
    },
    {
      "inputs": [
        {
          "internalType": "address",
          "name": "account",
          "type": "address"
        },
        {
          "internalType": "uint256",
          "name": "value",
          "type": "uint256"
        }
      ],
      "name": "mint",
      "outputs": [
        {
          "internalType": "bool",
          "name": "",
          "type": "bool"
        }
      ],
      "stateMutability": "nonpayable",
      "type": "function"
    }
  ],
  "bytecode": "0x6080604052620186a0600855620f4240600955336000806101000a81548173ffffffffffffffffffffffffffffffffffffffff021916908373ffffffffffffffffffffffffffffffffffffffff16021790555060018060003373ffffffffffffffffffffffffffffffffffffffff1673ffffffffffffffffffffffffffffffffffffffff16815260200190815260200160002060006101000a81548160ff0219169083151502179055506000600260006101000a81548160ff021916908315150217905550600854600660003373ffffffffffffffffffffffffffffffffffffffff1673ffffffffffffffffffffffffffffffffffffffff1681526020019081526020016000208190555060405180606001604052803373ffffffffffffffffffffffffffffffffffffffff1681526020016040518060400160405280600c81526020017f4d616c636f6c6d4552433230000000000000000000000000000000000000000081525081526020016040518060400160405280600381526020017f4d32300000000000000000000000000000000000000000000000000000000000815250815250600360008201518160000160006101000a81548173ffffffffffffffffffffffffffffffffffffffff021916908373ffffffffffffffffffffffffffffffffffffffff16021790555060208201518160010190805190602001906200020c92919062000235565b5060408201518160020190805190602001906200022b92919062000235565b5090505062000349565b828054620002439062000314565b90600052602060002090601f016020900481019282620002675760008555620002b3565b82601f106200028257805160ff1916838001178555620002b3565b82800160010185558215620002b3579182015b82811115620002b257825182559160200191906001019062000295565b5b509050620002c29190620002c6565b5090565b5b80821115620002e1576000816000905550600101620002c7565b5090565b7f4e487b7100000000000000000000000000000000000000000000000000000000600052602260045260246000fd5b600060028204905060018216806200032d57607f821691505b602082108103620003435762000342620002e5565b5b50919050565b611c9580620003596000396000f3fe6080604052600436106101185760003560e01c806340c10f19116100a05780638da5cb5b116100645780638da5cb5b146103f957806395d89b4114610424578063a9059cbb1461044f578063dd62ed3e1461048c578063f2fde38b146104c957610158565b806340c10f191461030257806342966c681461033f578063704802751461037c57806370a08231146103a55780638456cb59146103e257610158565b80631fc37784116100e75780631fc377841461021957806323b872dd1461024657806324d7806c14610283578063313ce567146102c05780633f4ba83a146102eb57610158565b806306fdde031461015d578063095ea7b3146101885780631785f53c146101c557806318160ddd146101ee57610158565b36610158577fd6717f327e0cb88b4a97a7f67a453e9258252c34937ccbdd86de7cb840e7def3333460405161014e9291906117f0565b60405180910390a1005b600080fd5b34801561016957600080fd5b506101726104f2565b60405161017f91906118b2565b60405180910390f35b34801561019457600080fd5b506101af60048036038101906101aa9190611931565b610587565b6040516101bc919061198c565b60405180910390f35b3480156101d157600080fd5b506101ec60048036038101906101e791906119a7565b6106b1565b005b3480156101fa57600080fd5b506102036107eb565b60405161021091906119d4565b60405180910390f35b34801561022557600080fd5b5061022e6107f5565b60405161023d939291906119ef565b60405180910390f35b34801561025257600080fd5b5061026d60048036038101906102689190611a34565b61093d565b60405161027a919061198c565b60405180910390f35b34801561028f57600080fd5b506102aa60048036038101906102a591906119a7565b610c7a565b6040516102b7919061198c565b60405180910390f35b3480156102cc57600080fd5b506102d5610d29565b6040516102e29190611aa3565b60405180910390f35b3480156102f757600080fd5b50610300610d2e565b005b34801561030e57600080fd5b5061032960048036038101906103249190611931565b610df8565b604051610336919061198c565b60405180910390f35b34801561034b57600080fd5b5061036660048036038101906103619190611abe565b610fa7565b604051610373919061198c565b60405180910390f35b34801561038857600080fd5b506103a3600480360381019061039e91906119a7565b611155565b005b3480156103b157600080fd5b506103cc60048036038101906103c791906119a7565b611297565b6040516103d991906119d4565b60405180910390f35b3480156103ee57600080fd5b506103f76112e0565b005b34801561040557600080fd5b5061040e6113ab565b60405161041b9190611aeb565b60405180910390f35b34801561043057600080fd5b506104396113cf565b60405161044691906118b2565b60405180910390f35b34801561045b57600080fd5b5061047660048036038101906104719190611931565b611464565b604051610483919061198c565b60405180910390f35b34801561049857600080fd5b506104b360048036038101906104ae9190611b06565b611674565b6040516104c091906119d4565b60405180910390f35b3480156104d557600080fd5b506104f060048036038101906104eb91906119a7565b6116fb565b005b60606003600101805461050490611b75565b80601f016020809104026020016040519081016040528092919081815260200182805461053090611b75565b801561057d5780601f106105525761010080835404028352916020019161057d565b820191906000526020600020905b81548152906001019060200180831161056057829003601f168201915b5050505050905090565b60008073ffffffffffffffffffffffffffffffffffffffff168373ffffffffffffffffffffffffffffffffffffffff16036105c157600080fd5b81600760003373ffffffffffffffffffffffffffffffffffffffff1673ffffffffffffffffffffffffffffffffffffffff16815260200190815260200160002060008573ffffffffffffffffffffffffffffffffffffffff1673ffffffffffffffffffffffffffffffffffffffff168152602001908152602001600020819055508273ffffffffffffffffffffffffffffffffffffffff163373ffffffffffffffffffffffffffffffffffffffff167f8c5be1e5ebec7d5bd14f71427d1e84f3dd0314c0f7b2291e5b200ac8c7c3b9258460405161069f91906119d4565b60405180910390a36001905092915050565b60008054906101000a900473ffffffffffffffffffffffffffffffffffffffff1673ffffffffffffffffffffffffffffffffffffffff163373ffffffffffffffffffffffffffffffffffffffff161461070957600080fd5b600073ffffffffffffffffffffffffffffffffffffffff168173ffffffffffffffffffffffffffffffffffffffff16141580156107905750600160008273ffffffffffffffffffffffffffffffffffffffff1673ffffffffffffffffffffffffffffffffffffffff16815260200190815260200160002060009054906101000a900460ff16155b61079957600080fd5b600160008273ffffffffffffffffffffffffffffffffffffffff1673ffffffffffffffffffffffffffffffffffffffff16815260200190815260200160002060006101000a81549060ff021916905550565b6000600954905090565b60038060000160009054906101000a900473ffffffffffffffffffffffffffffffffffffffff169080600101805461082c90611b75565b80601f016020809104026020016040519081016040528092919081815260200182805461085890611b75565b80156108a55780601f1061087a576101008083540402835291602001916108a5565b820191906000526020600020905b81548152906001019060200180831161088857829003601f168201915b5050505050908060020180546108ba90611b75565b80601f01602080910402602001604051908101604052809291908181526020018280546108e690611b75565b80156109335780601f1061090857610100808354040283529160200191610933565b820191906000526020600020905b81548152906001019060200180831161091657829003601f168201915b5050505050905083565b60008073ffffffffffffffffffffffffffffffffffffffff168373ffffffffffffffffffffffffffffffffffffffff16141580156109ba5750600660008573ffffffffffffffffffffffffffffffffffffffff1673ffffffffffffffffffffffffffffffffffffffff168152602001908152602001600020548211155b8015610a425750600760008573ffffffffffffffffffffffffffffffffffffffff1673ffffffffffffffffffffffffffffffffffffffff16815260200190815260200160002060003373ffffffffffffffffffffffffffffffffffffffff1673ffffffffffffffffffffffffffffffffffffffff168152602001908152602001600020548211155b610a4b57600080fd5b81600660008673ffffffffffffffffffffffffffffffffffffffff1673ffffffffffffffffffffffffffffffffffffffff16815260200190815260200160002054610a969190611bd5565b600660008673ffffffffffffffffffffffffffffffffffffffff1673ffffffffffffffffffffffffffffffffffffffff1681526020019081526020016000208190555081600660008573ffffffffffffffffffffffffffffffffffffffff1673ffffffffffffffffffffffffffffffffffffffff16815260200190815260200160002054610b249190611c09565b600660008573ffffffffffffffffffffffffffffffffffffffff1673ffffffffffffffffffffffffffffffffffffffff1681526020019081526020016000208190555081600760008673ffffffffffffffffffffffffffffffffffffffff1673ffffffffffffffffffffffffffffffffffffffff16815260200190815260200160002060003373ffffffffffffffffffffffffffffffffffffffff1673ffffffffffffffffffffffffffffffffffffffff16815260200190815260200160002054610bef9190611bd5565b600760008673ffffffffffffffffffffffffffffffffffffffff1673ffffffffffffffffffffffffffffffffffffffff16815260200190815260200160002060003373ffffffffffffffffffffffffffffffffffffffff1673ffffffffffffffffffffffffffffffffffffffff16815260200190815260200160002081905550600190509392505050565b60008060009054906101000a900473ffffffffffffffffffffffffffffffffffffffff1673ffffffffffffffffffffffffffffffffffffffff163373ffffffffffffffffffffffffffffffffffffffff1614610cd557600080fd5b600160008373ffffffffffffffffffffffffffffffffffffffff1673ffffffffffffffffffffffffffffffffffffffff16815260200190815260200160002060009054906101000a900460ff169050919050565b600090565b60011515600160003373ffffffffffffffffffffffffffffffffffffffff1673ffffffffffffffffffffffffffffffffffffffff16815260200190815260200160002060009054906101000a900460ff16151514610d8b57600080fd5b600260009054906101000a900460ff16610da457600080fd5b6000600260006101000a81548160ff0219169083151502179055507f0fb94798166272486ac3f3b109fdc6b92c586c8d8d7c4c8288f1f21ea36edc9833604051610dee9190611aeb565b60405180910390a1565b600060011515600160003373ffffffffffffffffffffffffffffffffffffffff1673ffffffffffffffffffffffffffffffffffffffff16815260200190815260200160002060009054906101000a900460ff16151514610e5757600080fd5b600073ffffffffffffffffffffffffffffffffffffffff168373ffffffffffffffffffffffffffffffffffffffff1603610e9057600080fd5b81610e996107eb565b610ea39190611c09565b60098190555081600660008573ffffffffffffffffffffffffffffffffffffffff1673ffffffffffffffffffffffffffffffffffffffff16815260200190815260200160002054610ef49190611c09565b600660008573ffffffffffffffffffffffffffffffffffffffff1673ffffffffffffffffffffffffffffffffffffffff168152602001908152602001600020819055508273ffffffffffffffffffffffffffffffffffffffff16600073ffffffffffffffffffffffffffffffffffffffff167fddf252ad1be2c89b69c2b068fc378daa952ba7f163c4a11628f55a4df523b3ef84604051610f9591906119d4565b60405180910390a36001905092915050565b6000600260009054906101000a900460ff1615610fc357600080fd5b60011515600160003373ffffffffffffffffffffffffffffffffffffffff1673ffffffffffffffffffffffffffffffffffffffff16815260200190815260200160002060009054906101000a900460ff1615151461102057600080fd5b81600660003373ffffffffffffffffffffffffffffffffffffffff1673ffffffffffffffffffffffffffffffffffffffff16815260200190815260200160002054101561106c57600080fd5b81600660003373ffffffffffffffffffffffffffffffffffffffff1673ffffffffffffffffffffffffffffffffffffffff168152602001908152602001600020546110b79190611bd5565b600660003373ffffffffffffffffffffffffffffffffffffffff1673ffffffffffffffffffffffffffffffffffffffff16815260200190815260200160002081905550816111036107eb565b61110d9190611bd5565b6009819055507fcc16f5dbb4873280815c1ee09dbd06736cffcc184412cf7a71a0fdb75d397ca533836040516111449291906117f0565b60405180910390a160019050919050565b60008054906101000a900473ffffffffffffffffffffffffffffffffffffffff1673ffffffffffffffffffffffffffffffffffffffff163373ffffffffffffffffffffffffffffffffffffffff16146111ad57600080fd5b600073ffffffffffffffffffffffffffffffffffffffff168173ffffffffffffffffffffffffffffffffffffffff16141580156112345750600160008273ffffffffffffffffffffffffffffffffffffffff1673ffffffffffffffffffffffffffffffffffffffff16815260200190815260200160002060009054906101000a900460ff16155b61123d57600080fd5b60018060008373ffffffffffffffffffffffffffffffffffffffff1673ffffffffffffffffffffffffffffffffffffffff16815260200190815260200160002060006101000a81548160ff02191690831515021790555050565b6000600660008373ffffffffffffffffffffffffffffffffffffffff1673ffffffffffffffffffffffffffffffffffffffff168152602001908152602001600020549050919050565b60011515600160003373ffffffffffffffffffffffffffffffffffffffff1673ffffffffffffffffffffffffffffffffffffffff16815260200190815260200160002060009054906101000a900460ff1615151461133d57600080fd5b600260009054906101000a900460ff161561135757600080fd5b6001600260006101000a81548160ff0219169083151502179055507f34ff8c673d3f4966cacd4025e5a45c45764d0e9f9ebc866091e4363685a6c16c336040516113a19190611aeb565b60405180910390a1565b60008054906101000a900473ffffffffffffffffffffffffffffffffffffffff1681565b6060600360020180546113e190611b75565b80601f016020809104026020016040519081016040528092919081815260200182805461140d90611b75565b801561145a5780601f1061142f5761010080835404028352916020019161145a565b820191906000526020600020905b81548152906001019060200180831161143d57829003601f168201915b5050505050905090565b60008073ffffffffffffffffffffffffffffffffffffffff168373ffffffffffffffffffffffffffffffffffffffff16141580156114e0575081600660003373ffffffffffffffffffffffffffffffffffffffff1673ffffffffffffffffffffffffffffffffffffffff16815260200190815260200160002054115b6114e957600080fd5b81600660003373ffffffffffffffffffffffffffffffffffffffff1673ffffffffffffffffffffffffffffffffffffffff168152602001908152602001600020546115349190611bd5565b600660003373ffffffffffffffffffffffffffffffffffffffff1673ffffffffffffffffffffffffffffffffffffffff1681526020019081526020016000208190555081600660008573ffffffffffffffffffffffffffffffffffffffff1673ffffffffffffffffffffffffffffffffffffffff168152602001908152602001600020546115c29190611c09565b600660008573ffffffffffffffffffffffffffffffffffffffff1673ffffffffffffffffffffffffffffffffffffffff168152602001908152602001600020819055508273ffffffffffffffffffffffffffffffffffffffff163373ffffffffffffffffffffffffffffffffffffffff167fddf252ad1be2c89b69c2b068fc378daa952ba7f163c4a11628f55a4df523b3ef8460405161166291906119d4565b60405180910390a36001905092915050565b6000600760008473ffffffffffffffffffffffffffffffffffffffff1673ffffffffffffffffffffffffffffffffffffffff16815260200190815260200160002060008373ffffffffffffffffffffffffffffffffffffffff1673ffffffffffffffffffffffffffffffffffffffff16815260200190815260200160002054905092915050565b60008054906101000a900473ffffffffffffffffffffffffffffffffffffffff1673ffffffffffffffffffffffffffffffffffffffff163373ffffffffffffffffffffffffffffffffffffffff161461175357600080fd5b806000806101000a81548173ffffffffffffffffffffffffffffffffffffffff021916908373ffffffffffffffffffffffffffffffffffffffff16021790555050565b600073ffffffffffffffffffffffffffffffffffffffff82169050919050565b60006117c182611796565b9050919050565b6117d1816117b6565b82525050565b6000819050919050565b6117ea816117d7565b82525050565b600060408201905061180560008301856117c8565b61181260208301846117e1565b9392505050565b600081519050919050565b600082825260208201905092915050565b60005b83811015611853578082015181840152602081019050611838565b83811115611862576000848401525b50505050565b6000601f19601f8301169050919050565b600061188482611819565b61188e8185611824565b935061189e818560208601611835565b6118a781611868565b840191505092915050565b600060208201905081810360008301526118cc8184611879565b905092915050565b600080fd5b6118e2816117b6565b81146118ed57600080fd5b50565b6000813590506118ff816118d9565b92915050565b61190e816117d7565b811461191957600080fd5b50565b60008135905061192b81611905565b92915050565b60008060408385031215611948576119476118d4565b5b6000611956858286016118f0565b92505060206119678582860161191c565b9150509250929050565b60008115159050919050565b61198681611971565b82525050565b60006020820190506119a1600083018461197d565b92915050565b6000602082840312156119bd576119bc6118d4565b5b60006119cb848285016118f0565b91505092915050565b60006020820190506119e960008301846117e1565b92915050565b6000606082019050611a0460008301866117c8565b8181036020830152611a168185611879565b90508181036040830152611a2a8184611879565b9050949350505050565b600080600060608486031215611a4d57611a4c6118d4565b5b6000611a5b868287016118f0565b9350506020611a6c868287016118f0565b9250506040611a7d8682870161191c565b9150509250925092565b600060ff82169050919050565b611a9d81611a87565b82525050565b6000602082019050611ab86000830184611a94565b92915050565b600060208284031215611ad457611ad36118d4565b5b6000611ae28482850161191c565b91505092915050565b6000602082019050611b0060008301846117c8565b92915050565b60008060408385031215611b1d57611b1c6118d4565b5b6000611b2b858286016118f0565b9250506020611b3c858286016118f0565b9150509250929050565b7f4e487b7100000000000000000000000000000000000000000000000000000000600052602260045260246000fd5b60006002820490506001821680611b8d57607f821691505b602082108103611ba057611b9f611b46565b5b50919050565b7f4e487b7100000000000000000000000000000000000000000000000000000000600052601160045260246000fd5b6000611be0826117d7565b9150611beb836117d7565b925082821015611bfe57611bfd611ba6565b5b828203905092915050565b6000611c14826117d7565b9150611c1f836117d7565b9250827fffffffffffffffffffffffffffffffffffffffffffffffffffffffffffffffff03821115611c5457611c53611ba6565b5b82820190509291505056fea2646970667358221220ef2a0184d606c73451657a9facf1eb1f014a05bfc30dfd75f283ef5f778a99af64736f6c634300080e0033",
  "immutableReferences": {},
  "source": "pragma solidity ^0.8.14;\r\n\r\ninterface ERC20 {\r\n    //fns\r\n    function name() external view returns (string memory);\r\n    function symbol() external view returns (string memory);\r\n    function decimals() external view returns (uint8);\r\n    function totalSupply() external view returns (uint256);\r\n    function balanceOf(address owner) external view returns (uint256);\r\n    function transfer(address to, uint256 value) external returns (bool);\r\n    function transferFrom(address from, address to, uint256 value) external returns (bool);\r\n    function approve(address spender, uint256 value) external returns (bool);\r\n    function allowance(address owner, address spender) external view returns (uint256);\r\n\r\n    //events\r\n    event Transfer(address indexed from, address indexed to, uint256 value);\r\n    event Approval(address indexed owner, address indexed spender, uint256 value);\r\n\r\n}\r\n\r\ncontract Owned {\r\n    address public owner;\r\n    mapping( address => bool ) admins;\r\n\r\n    constructor () {\r\n        owner = msg.sender;\r\n        admins[msg.sender] = true;\r\n    }\r\n\r\n    modifier onlyOwner {\r\n        require(msg.sender == owner);\r\n        _;\r\n    }\r\n\r\n    modifier onlyAdmin() {\r\n        require(admins[msg.sender] == true);\r\n        _;\r\n    }\r\n\r\n    function transferOwnership(address newOwner) onlyOwner public {\r\n        owner = newOwner;\r\n    }\r\n\r\n    function isAdmin(address account) onlyOwner public view returns (bool) {\r\n        return admins[account];\r\n    }\r\n\r\n    function addAdmin(address account) onlyOwner public {\r\n        require(account != address(0) && !admins[account]);\r\n        admins[account] = true;\r\n    }\r\n\r\n    function removeAdmin(address account) onlyOwner public {\r\n        require(account != address(0) && !admins[account]);\r\n        delete admins[account];\r\n    }\r\n}\r\n\r\ncontract Pausable is Owned {\r\n    event PausedEvent(address account);\r\n    event UnpausedEvent(address account);\r\n    bool private paused;\r\n\r\n    constructor() {\r\n        paused = false;\r\n    }\r\n\r\n    modifier whenNotPaused() {\r\n        require(!paused);\r\n        _;\r\n    }\r\n\r\n    modifier whenPaused() {\r\n        require(paused);\r\n        _;\r\n    }\r\n\r\n    function pause() public onlyAdmin whenNotPaused {\r\n        paused = true;\r\n        emit PausedEvent(msg.sender);\r\n    }\r\n\r\n    function unpause() public onlyAdmin whenPaused {\r\n        paused = false;\r\n        emit UnpausedEvent(msg.sender);\r\n    }\r\n}\r\n\r\ncontract MalcolmERC20 is ERC20, Pausable{\r\n    TokenSummary public tokenSummary;\r\n    mapping( address => uint256 ) internal balances;\r\n    mapping( address => mapping (address => uint256) ) internal allowedToSpend;\r\n    uint256 internal _initialSupply = 100000;\r\n    uint256 internal _totalSupply = 1000000;\r\n    event Burn(address from, uint256 value);\r\n    event Receive(address from, uint256 value);\r\n\r\n    struct TokenSummary {\r\n        address initialAccount;\r\n        string name;\r\n        string symbol;\r\n    }\r\n\r\n    constructor() payable {\r\n        balances[msg.sender] = _initialSupply;\r\n        //_totalSupply = initialBalance;\r\n        tokenSummary = TokenSummary(msg.sender, \"MalcolmERC20\", \"M20\");\r\n\r\n    }\r\n\r\n    function name() public view returns (string memory) {\r\n        return tokenSummary.name;\r\n    }\r\n\r\n    function symbol() public view returns (string memory) {\r\n        return tokenSummary.symbol;\r\n    }\r\n\r\n    function decimals() public view returns (uint8) {\r\n        return 0;\r\n    }\r\n\r\n    function totalSupply() public view returns (uint256) {\r\n        return _totalSupply;\r\n    }\r\n\r\n    function balanceOf(address owner) public view returns (uint256) {\r\n        return balances[owner];\r\n    }\r\n\r\n    function transfer(address to, uint256 value) public returns (bool) {\r\n        //ensure valid address & sender has enough tokens in balances for transfer(deposit)\r\n        //to address\r\n        require(to != address(0) && balances[msg.sender] > value);\r\n        balances[msg.sender] = balances[msg.sender] - value;\r\n        balances[to] = balances[to] + value;\r\n        //log txn in blockchain\r\n        emit Transfer(msg.sender, to , value);\r\n        return true;\r\n    }\r\n\r\n    function transferFrom(address from, address to, uint256 value) public returns (bool) {\r\n        //---For withdrawals, allowing contracts to transfer tokens on our behalf---\r\n        //ensure to address is valid, and value is <= balances of from address &&\r\n        //value <= tokens that from address has allowed msg.sender(invoker) to spend.\r\n        require(to != address(0) && value <= balances[from] &&\r\n            value <= allowedToSpend[from][msg.sender]);\r\n        balances[from] = balances[from] - value;\r\n        balances[to] = balances[to] + value;\r\n        //update no of tokens that from address has allowed invoker to spend\r\n        allowedToSpend[from][msg.sender] = allowedToSpend[from][msg.sender] - value;\r\n        return true;\r\n    }\r\n\r\n    function approve(address spender, uint256 value) public returns (bool) {\r\n        //Check spender address is valid, then allow spender to withdraw value from account\r\n        require(spender != address(0));\r\n        allowedToSpend[msg.sender][spender] = value;\r\n        //log txn in blockchain\r\n        emit Approval(msg.sender, spender, value);\r\n        return true;\r\n    }\r\n\r\n    function allowance(address owner, address spender) public view returns (uint256) {\r\n        return allowedToSpend[owner][spender];\r\n    }\r\n\r\n    function burn(uint256 value) public whenNotPaused onlyAdmin returns (bool success) {\r\n        //reduce target address' token values and total supply value\r\n        require(balances[msg.sender] >= value);\r\n        balances[msg.sender] = balances[msg.sender] - value;\r\n        _totalSupply = totalSupply() - value;\r\n        emit Burn(msg.sender, value);\r\n        return true;\r\n    }\r\n\r\n    function mint(address account, uint256 value) public onlyAdmin returns (bool) {\r\n        //increase target address' token values and total supply value\r\n        require(account != address(0));\r\n        _totalSupply = totalSupply() + value;\r\n        balances[account] = balances[account] + value;\r\n        emit Transfer(address(0), account, value);\r\n        return true;\r\n    }\r\n\r\n    receive () external payable {\r\n        emit Receive(msg.sender, msg.value);\r\n    }\r\n\r\n    fallback () external payable {\r\n        revert();\r\n    }\r\n\r\n}",
  "sourcePath": "C:\\Users\\zheru\\OneDrive\\blockchain\\malcolm-eth-app2\\contracts\\MalcolmERC20.sol",
  "compiler": {
    "name": "solc",
    "version": "0.8.14+commit.80d49f37.Emscripten.clang"
  },
  "schemaVersion": "3.4.7",
  "updatedAt": "2022-06-04T13:23:18.113Z",
  "devdoc": {
    "kind": "dev",
    "methods": {},
    "version": 1
  },
  "userdoc": {
    "kind": "user",
    "methods": {},
    "version": 1
  }
}