{
  "contractName": "Owned",
  "abi": [
    {
      "inputs": [],
      "stateMutability": "nonpayable",
      "type": "constructor"
    },
    {
      "inputs": [],
      "name": "owner",
      "outputs": [
        {
          "internalType": "address",
          "name": "",
          "type": "address"
        }
      ],
      "stateMutability": "view",
      "type": "function"
    },
    {
      "inputs": [
        {
          "internalType": "address",
          "name": "newOwner",
          "type": "address"
        }
      ],
      "name": "transferOwnership",
      "outputs": [],
      "stateMutability": "nonpayable",
      "type": "function"
    },
    {
      "inputs": [
        {
          "internalType": "address",
          "name": "account",
          "type": "address"
        }
      ],
      "name": "isAdmin",
      "outputs": [
        {
          "internalType": "bool",
          "name": "",
          "type": "bool"
        }
      ],
      "stateMutability": "view",
      "type": "function"
    },
    {
      "inputs": [
        {
          "internalType": "address",
          "name": "account",
          "type": "address"
        }
      ],
      "name": "addAdmin",
      "outputs": [],
      "stateMutability": "nonpayable",
      "type": "function"
    },
    {
      "inputs": [
        {
          "internalType": "address",
          "name": "account",
          "type": "address"
        }
      ],
      "name": "removeAdmin",
      "outputs": [],
      "stateMutability": "nonpayable",
      "type": "function"
    }
  ],
  "bytecode": "0x608060405234801561001057600080fd5b50336000806101000a81548173ffffffffffffffffffffffffffffffffffffffff021916908373ffffffffffffffffffffffffffffffffffffffff16021790555060018060003373ffffffffffffffffffffffffffffffffffffffff1673ffffffffffffffffffffffffffffffffffffffff16815260200190815260200160002060006101000a81548160ff02191690831515021790555061060e806100b76000396000f3fe608060405234801561001057600080fd5b50600436106100575760003560e01c80631785f53c1461005c57806324d7806c1461007857806370480275146100a85780638da5cb5b146100c4578063f2fde38b146100e2575b600080fd5b6100766004803603810190610071919061054b565b6100fe565b005b610092600480360381019061008d919061054b565b610238565b60405161009f9190610593565b60405180910390f35b6100c260048036038101906100bd919061054b565b6102e7565b005b6100cc610429565b6040516100d991906105bd565b60405180910390f35b6100fc60048036038101906100f7919061054b565b61044d565b005b60008054906101000a900473ffffffffffffffffffffffffffffffffffffffff1673ffffffffffffffffffffffffffffffffffffffff163373ffffffffffffffffffffffffffffffffffffffff161461015657600080fd5b600073ffffffffffffffffffffffffffffffffffffffff168173ffffffffffffffffffffffffffffffffffffffff16141580156101dd5750600160008273ffffffffffffffffffffffffffffffffffffffff1673ffffffffffffffffffffffffffffffffffffffff16815260200190815260200160002060009054906101000a900460ff16155b6101e657600080fd5b600160008273ffffffffffffffffffffffffffffffffffffffff1673ffffffffffffffffffffffffffffffffffffffff16815260200190815260200160002060006101000a81549060ff021916905550565b60008060009054906101000a900473ffffffffffffffffffffffffffffffffffffffff1673ffffffffffffffffffffffffffffffffffffffff163373ffffffffffffffffffffffffffffffffffffffff161461029357600080fd5b600160008373ffffffffffffffffffffffffffffffffffffffff1673ffffffffffffffffffffffffffffffffffffffff16815260200190815260200160002060009054906101000a900460ff169050919050565b60008054906101000a900473ffffffffffffffffffffffffffffffffffffffff1673ffffffffffffffffffffffffffffffffffffffff163373ffffffffffffffffffffffffffffffffffffffff161461033f57600080fd5b600073ffffffffffffffffffffffffffffffffffffffff168173ffffffffffffffffffffffffffffffffffffffff16141580156103c65750600160008273ffffffffffffffffffffffffffffffffffffffff1673ffffffffffffffffffffffffffffffffffffffff16815260200190815260200160002060009054906101000a900460ff16155b6103cf57600080fd5b60018060008373ffffffffffffffffffffffffffffffffffffffff1673ffffffffffffffffffffffffffffffffffffffff16815260200190815260200160002060006101000a81548160ff02191690831515021790555050565b60008054906101000a900473ffffffffffffffffffffffffffffffffffffffff1681565b60008054906101000a900473ffffffffffffffffffffffffffffffffffffffff1673ffffffffffffffffffffffffffffffffffffffff163373ffffffffffffffffffffffffffffffffffffffff16146104a557600080fd5b806000806101000a81548173ffffffffffffffffffffffffffffffffffffffff021916908373ffffffffffffffffffffffffffffffffffffffff16021790555050565b600080fd5b600073ffffffffffffffffffffffffffffffffffffffff82169050919050565b6000610518826104ed565b9050919050565b6105288161050d565b811461053357600080fd5b50565b6000813590506105458161051f565b92915050565b600060208284031215610561576105606104e8565b5b600061056f84828501610536565b91505092915050565b60008115159050919050565b61058d81610578565b82525050565b60006020820190506105a86000830184610584565b92915050565b6105b78161050d565b82525050565b60006020820190506105d260008301846105ae565b9291505056fea26469706673582212203da86028bb54f5ffa6fdaeab6df8135d4f2f59f6882503f90615c911e4d49c8f64736f6c634300080e0033",
  "immutableReferences": {},
  "source": "pragma solidity ^0.8.14;\r\n\r\ninterface ERC20 {\r\n    //fns\r\n    function name() external view returns (string memory);\r\n    function symbol() external view returns (string memory);\r\n    function decimals() external view returns (uint8);\r\n    function totalSupply() external view returns (uint256);\r\n    function balanceOf(address owner) external view returns (uint256);\r\n    function transfer(address to, uint256 value) external returns (bool);\r\n    function transferFrom(address from, address to, uint256 value) external returns (bool);\r\n    function approve(address spender, uint256 value) external returns (bool);\r\n    function allowance(address owner, address spender) external view returns (uint256);\r\n\r\n    //events\r\n    event Transfer(address indexed from, address indexed to, uint256 value);\r\n    event Approval(address indexed owner, address indexed spender, uint256 value);\r\n\r\n}\r\n\r\ncontract Owned {\r\n    address public owner;\r\n    mapping( address => bool ) admins;\r\n\r\n    constructor () {\r\n        owner = msg.sender;\r\n        admins[msg.sender] = true;\r\n    }\r\n\r\n    modifier onlyOwner {\r\n        require(msg.sender == owner);\r\n        _;\r\n    }\r\n\r\n    modifier onlyAdmin() {\r\n        require(admins[msg.sender] == true);\r\n        _;\r\n    }\r\n\r\n    function transferOwnership(address newOwner) onlyOwner public {\r\n        owner = newOwner;\r\n    }\r\n\r\n    function isAdmin(address account) onlyOwner public view returns (bool) {\r\n        return admins[account];\r\n    }\r\n\r\n    function addAdmin(address account) onlyOwner public {\r\n        require(account != address(0) && !admins[account]);\r\n        admins[account] = true;\r\n    }\r\n\r\n    function removeAdmin(address account) onlyOwner public {\r\n        require(account != address(0) && !admins[account]);\r\n        delete admins[account];\r\n    }\r\n}\r\n\r\ncontract Pausable is Owned {\r\n    event PausedEvent(address account);\r\n    event UnpausedEvent(address account);\r\n    bool private paused;\r\n\r\n    constructor() {\r\n        paused = false;\r\n    }\r\n\r\n    modifier whenNotPaused() {\r\n        require(!paused);\r\n        _;\r\n    }\r\n\r\n    modifier whenPaused() {\r\n        require(paused);\r\n        _;\r\n    }\r\n\r\n    function pause() public onlyAdmin whenNotPaused {\r\n        paused = true;\r\n        emit PausedEvent(msg.sender);\r\n    }\r\n\r\n    function unpause() public onlyAdmin whenPaused {\r\n        paused = false;\r\n        emit UnpausedEvent(msg.sender);\r\n    }\r\n}\r\n\r\ncontract MalcolmERC20 is ERC20, Pausable{\r\n    TokenSummary public tokenSummary;\r\n    mapping( address => uint256 ) internal balances;\r\n    mapping( address => mapping (address => uint256) ) internal allowedToSpend;\r\n    uint256 internal _initialSupply = 100000;\r\n    uint256 internal _totalSupply = 1000000;\r\n    event Burn(address from, uint256 value);\r\n    event Receive(address from, uint256 value);\r\n\r\n    struct TokenSummary {\r\n        address initialAccount;\r\n        string name;\r\n        string symbol;\r\n    }\r\n\r\n    constructor() payable {\r\n        balances[msg.sender] = _initialSupply;\r\n        //_totalSupply = initialBalance;\r\n        tokenSummary = TokenSummary(msg.sender, \"MalcolmERC20\", \"M20\");\r\n\r\n    }\r\n\r\n    function name() public view returns (string memory) {\r\n        return tokenSummary.name;\r\n    }\r\n\r\n    function symbol() public view returns (string memory) {\r\n        return tokenSummary.symbol;\r\n    }\r\n\r\n    function decimals() public view returns (uint8) {\r\n        return 0;\r\n    }\r\n\r\n    function totalSupply() public view returns (uint256) {\r\n        return _totalSupply;\r\n    }\r\n\r\n    function balanceOf(address owner) public view returns (uint256) {\r\n        return balances[owner];\r\n    }\r\n\r\n    function transfer(address to, uint256 value) public returns (bool) {\r\n        //ensure valid address & sender has enough tokens in balances for transfer(deposit)\r\n        //to address\r\n        require(to != address(0) && balances[msg.sender] > value);\r\n        balances[msg.sender] = balances[msg.sender] - value;\r\n        balances[to] = balances[to] + value;\r\n        //log txn in blockchain\r\n        emit Transfer(msg.sender, to , value);\r\n        return true;\r\n    }\r\n\r\n    function transferFrom(address from, address to, uint256 value) public returns (bool) {\r\n        //---For withdrawals, allowing contracts to transfer tokens on our behalf---\r\n        //ensure to address is valid, and value is <= balances of from address &&\r\n        //value <= tokens that from address has allowed msg.sender(invoker) to spend.\r\n        require(to != address(0) && value <= balances[from] &&\r\n            value <= allowedToSpend[from][msg.sender]);\r\n        balances[from] = balances[from] - value;\r\n        balances[to] = balances[to] + value;\r\n        //update no of tokens that from address has allowed invoker to spend\r\n        allowedToSpend[from][msg.sender] = allowedToSpend[from][msg.sender] - value;\r\n        return true;\r\n    }\r\n\r\n    function approve(address spender, uint256 value) public returns (bool) {\r\n        //Check spender address is valid, then allow spender to withdraw value from account\r\n        require(spender != address(0));\r\n        allowedToSpend[msg.sender][spender] = value;\r\n        //log txn in blockchain\r\n        emit Approval(msg.sender, spender, value);\r\n        return true;\r\n    }\r\n\r\n    function allowance(address owner, address spender) public view returns (uint256) {\r\n        return allowedToSpend[owner][spender];\r\n    }\r\n\r\n    function burn(uint256 value) public whenNotPaused onlyAdmin returns (bool success) {\r\n        //reduce target address' token values and total supply value\r\n        require(balances[msg.sender] >= value);\r\n        balances[msg.sender] = balances[msg.sender] - value;\r\n        _totalSupply = totalSupply() - value;\r\n        emit Burn(msg.sender, value);\r\n        return true;\r\n    }\r\n\r\n    function mint(address account, uint256 value) public onlyAdmin returns (bool) {\r\n        //increase target address' token values and total supply value\r\n        require(account != address(0));\r\n        _totalSupply = totalSupply() + value;\r\n        balances[account] = balances[account] + value;\r\n        emit Transfer(address(0), account, value);\r\n        return true;\r\n    }\r\n\r\n    receive () external payable {\r\n        emit Receive(msg.sender, msg.value);\r\n    }\r\n\r\n    fallback () external payable {\r\n        revert();\r\n    }\r\n\r\n}",
  "sourcePath": "C:\\Users\\zheru\\OneDrive\\blockchain\\malcolm-eth-app2\\contracts\\MalcolmERC20.sol",
  "compiler": {
    "name": "solc",
    "version": "0.8.14+commit.80d49f37.Emscripten.clang"
  },
  "schemaVersion": "3.4.7",
  "updatedAt": "2022-05-29T12:29:23.786Z",
  "devdoc": {
    "kind": "dev",
    "methods": {},
    "version": 1
  },
  "userdoc": {
    "kind": "user",
    "methods": {},
    "version": 1
  }
}